:020000040800F2
:10000000801600209D010008B9330008C1210008B6
:10001000B5330008C9040008293D000800000000AD
:10002000000000000000000000000000D9340008BB
:10003000BB05000800000000BB330008DB340008EB
:10004000B7010008B7010008B7010008B7010008B0
:10005000B7010008B7010008B7010008B7010008A0
:10006000B7010008B7010008B7010008B701000890
:10007000B7010008B7010008B7010008B701000880
:10008000B7010008CD040008B7010008B701000857
:10009000B7010008B7010008B7010008B701000860
:1000A000B7010008B7010008B7010008B701000850
:1000B000B7010008B7010008B7010008B701000840
:1000C000B7010008B7010008B7010008B701000830
:1000D000B7010008B7010008193D0008B701000882
:1000E000B7010008B7010008B7010008B701000810
:1000F000B7010008B7010008B7010008B701000800
:10010000B7010008B7010008B7010008B7010008EF
:10011000B7010008B7010008B7010008B7010008DF
:10012000B7010008B7010008B7010008B7010008CF
:10013000B7010008B7010008B7010008B7010008BF
:10014000B7010008B7010008B7010008B7010008AF
:10015000B7010008B7010008B7010008B70100089F
:10016000B7010008B7010008B7010008B70100088F
:10017000B7010008B7010008B7010008000000003F
:10018000B7010008B7010008DFF80CD000F094F8C0
:1001900000480047B53E000880160020064880470A
:1001A00006480047FEE7FEE7FEE7FEE7FEE7FEE75C
:1001B000FEE7FEE7FEE7FEE7E534000889010008F8
:1001C0002DE9F05F0546002092469B46884606468C
:1001D000814640241BE0284641464746224600F01F
:1001E00043F853465A46C01A914110D31146184657
:1001F000224600F02AF82D1A67EB01084F462246E6
:100200000120002100F021F817EB00094E41201ECB
:10021000A4F10104DFDC484631462A464346BDE8E6
:10022000F09FD2B201E000F8012B491EFBD27047CB
:100230000022F6E710B513460A4604461946FFF7B2
:10024000F0FF204610BD00F029B8202A04DB203A38
:1002500000FA02F1002070479140C2F1200320FA19
:1002600003F3194390407047202A04DB203A21FA17
:1002700002F00021704721FA02F3D040C2F12002BF
:100280009140084319467047034870470248001DD3
:10029000011F8860001D70471800002010B500F095
:1002A00020F8016919B100220261884701E08068E5
:1002B0008047AFF300800000064C074D06E0E06881
:1002C00040F0010394E8070098471034AC42F6D39D
:1002D000FFF75EFFE83F00080840000810B5AFF3E5
:1002E000008070B5FFF7D2FF04680546A4B920204E
:1002F00003F034FE040011D0094900202C60C4E949
:1003000000010849A1602073206160610649A06175
:1003100009B100F00BF8E061204670BDAFF300803A
:1003200000000000DD0200080000000010B5882079
:1003300003F014FE002801D00021017010BD8029B7
:1003400002D808B1017809B100207047012100F8F6
:10035000081B704718B100F10802914201D000203B
:10036000704700210170704755494A6822F44032B5
:100370004A604A6843681A434A600268526822F435
:10038000807203685A6002685368026943EA022275
:1003900003685A600268526822F0407203685A602B
:1003A0000268526883681A4303685A600268926858
:1003B00022F4006203689A6002689268C3681A4374
:1003C00003689A603F4B826A9A4218D0026892682A
:1003D00022F0706203689A6002689268836A1A4326
:1003E00003689A600268926822F0405203689A603B
:1003F00002689268C36A1A4303689A600BE0026855
:10040000926822F0706203689A600268926822F033
:10041000405203689A600268926822F00202036800
:100420009A6002689368027E43EA420203689A6017
:100430002022125CA2B10268526842F40062036892
:100440005A600268526822F4604203685A60026887
:100450005368426A521E43EA423203685A6005E01A
:100460000268526822F4006203685A600268D26A25
:1004700022F470020368DA620268D36A828B521E29
:1004800043EA02520368DA620268926822F4007258
:1004900003689A600268936890F8302043EA422229
:1004A00003689A600268926822F4806203689A6026
:1004B00002689368426943EA822203689A6070473F
:1004C000002301400100000F00BFFEE710B5024805
:1004D00000F02AFC10BD0000200200200146087830
:1004E00010381823B0FBF3F20848805CC865032A73
:1004F00005D908686FF30900001D886503E00868E6
:100500006FF309008865886D70470000C83F0008D8
:10051000014600208A6A8B69CBB932B1012A0DD01D
:10052000022A03D0032A10D10EE000BFCB6A03F0E9
:100530008073B3F1807F00D1012007E0CB6AB3F173
:10054000C07F00D1012001E000E000BF34E08B69F2
:10055000B3F5005F1AD132B1012A07D0022A03D0C5
:10056000032A11D10AE000BF01200EE0CB6A03F09C
:100570008073B3F1807F00D1012006E0CB6AB3F134
:10058000C07F00D1012000E000BF15E032B1012A98
:1005900005D0022A04D0032A0CD103E000BF00BF1B
:1005A000012008E0CB6A03F08073B3F1807F00D1B3
:1005B000012000E000BF00BF704770477047000097
:1005C00038B502460020009000BF92F83C00012898
:1005D00001D1022038BD012082F83C0000BF08682C
:1005E000092816D91068C0680C780A3C04EB440549
:1005F0000724AC40A0431468E0600C780A3C04EB8C
:1006000044048868A0401468E46820431468E060EB
:1006100013E0106800690C7804EB44050724AC4033
:10062000A043146820610C7804EB44048868A0405F
:10063000146824692043146820614868072817D289
:100640001068406B0C79641E04EB84051F24AC40D9
:10065000A04314686063088880B20C79641E04EBC0
:100660008404A0401468646B20431468606331E024
:1006700048680D2817D21068006B0C79E41F04EB52
:1006800084051F24AC40A04314682063088880B20E
:100690000C79E41F04EB8404A0401468246B20430D
:1006A0001468206316E01068C06A0C790D3C04EBF6
:1006B00084051F24AC40A0431468E062088880B21F
:1006C0000C790D3C04EB8404A0401468E46A2043D8
:1006D0001468E062194B1A4C1068A04206D10868F1
:1006E000122803D1586840F480005860144C1068F8
:1006F000A0421CD10868102802D00868112816D121
:10070000586840F400005860086810280FD10D4860
:1007100000680D4CB0FBF4F000EB8000400000904E
:1007200002E00098401E009000980028F9D100BF18
:10073000002082F83C0000BF00BF4BE700230140CF
:10074000002001401400002040420F0070B5044614
:1007500000250CB9012070BD1549A06A884200D05F
:1007600000BF206C30B9204600F024F800206064FF
:1007700084F83C00206C00F0100088B9206C20F454
:10078000885040F0020020642046FFF7EDFD002075
:100790006064206C20F0020040F00100206400E062
:1007A000012500BF002084F83C0000BF2846D2E7A6
:1007B0000100000F10B586B00446142101A8FFF710
:1007C00037FD4949206888425CD100BF0020009075
:1007D0004648006840F48070444908600846006854
:1007E00000F48070009000BF00BF00BF00200090A8
:1007F0003E481438006840F004003C491439086051
:100800000846006800F00400009000BF00BF00BF71
:10081000002000900846006840F00100086008468B
:10082000006800F00100009000BF00BF00BF002082
:1008300000900846006840F0020008600846006822
:1008400000F00200009000BF00BF332001900320A1
:1008500002900020039001A9254800F0FBFB032033
:10086000019002900020039001A9224800F0F2FBC1
:100870000320019002900020039001A91E4800F07F
:10088000E9FB2FE01D49206888422BD100BF0020E2
:1008900000901648006840F48060144908600846DB
:1008A000006800F48060009000BF00BF00BF00201F
:1008B00000900E481438006840F020000B491439AD
:1008C00008600846006800F02000009000BF00BFEC
:1008D00080200190032002900020039001A9084885
:1008E00000F0B8FB06B010BD0020014044380240C3
:1008F00000080240000002400004024000220140C3
:100900000014024070B504460CB9012070BD94F883
:10091000200010B9204600F0AFF82068006820F0F1
:1009200002002168086000F09BFC05460DE000F025
:1009300097FC401B0A2808D9606A40F400306062C6
:10094000052084F820000120E0E72068406800F0DE
:1009500002000028EBD12068006840F00100216807
:10096000086000F07DFC05460DE000F079FC401BBE
:100970000A2808D9606A40F400306062052084F8D3
:1009800020000120C2E72068406800F00100002834
:10099000EBD0207E012806D12068006840F080005E
:1009A0002168086005E02068006820F08000216868
:1009B0000860607E012806D12068006840F0400091
:1009C0002168086005E02068006820F04000216888
:1009D0000860A07E012806D12068006840F0200051
:1009E0002168086005E02068006820F02000216888
:1009F0000860E07E012806D12068006820F0100021
:100A00002168086005E02068006840F01000216857
:100A10000860207F012806D12068006840F00800A7
:100A20002168086005E02068006820F0080021685F
:100A30000860607F012806D12068006840F004004B
:100A40002168086005E02068006820F00400216843
:100A50000860D4E902010843216908436169084339
:100A60006168491E08432168C86100206062012056
:100A700084F82000002049E710B586B00446142110
:100A800001A8FFF7D5FB56492068884257D1554841
:100A90000068401C534908600846006801280FD1CF
:100AA00000BF002000905048006840F000704E49A0
:100AB00008600846006800F00070009000BF00BFAA
:100AC00000BF0020009048481038006840F4807053
:100AD0004549103908600846006800F480700090AD
:100AE00000BF00BF00BF002000900846006840F033
:100AF000800008600846006800F08000009000BF99
:100B000000BF4815019002200290002003900320AE
:100B100004900920059001A9344800F09BFA4FF495
:100B200000500190022002900020039003200490C6
:100B30000920059001A92E4800F08CFA4DE02D49BE
:100B40002068884249D100BF0020009026480068F4
:100B500040F08060244908600846006800F080602A
:100B6000009000BF00BF1F480068401C1D4908607E
:100B70000846006801280FD100BF002000901A48E5
:100B8000006840F00070184908600846006800F0EE
:100B90000070009000BF00BF00BF0020009012480E
:100BA0001038006840F002000F491039086008460C
:100BB000006800F00200009000BF00BF42F2200079
:100BC000019002200290002003900320049009204D
:100BD000059001A9084800F03DFA06B010BD0000DC
:100BE0000064004000000020403802400020024025
:100BF000001C0240006800400004024070B503463B
:100C00000024002500BF5879012801D1022070BDC1
:100C10000120587100BF022018711868046840F65E
:100C2000FE7090408443D1E9000640EA060505FACB
:100C300002F004431868046018680668C0209040F9
:100C40008643186806600120187100BF00205871A3
:100C500000BF00BFDBE710B504460CB9012010BD92
:100C6000207920B900206071204600F009F80220A8
:100C7000207100202061012020710020EFE700009A
:100C800010B586B00446142101A8FFF7D1FA19491E
:100C9000206888422BD100BF0020009016480068D1
:100CA00040F00050144908600846006800F0005009
:100CB000009000BF00BF00BF002000900E48103819
:100CC000006840F001000C491039086008460068CF
:100CD00000F00100009000BF00BF10200190032031
:100CE00002900020039001A9044800F0B3F906B077
:100CF00010BD000000740040403802400000024077
:100D0000014691F83500022803D080204865012073
:100D10007047052081F835000868006820F0010060
:100D20000A6810600020F3E7F8B504460020009040
:100D30008C4800684FF41651B0FBF1F7A56D2E6892
:100D400094F85C1008208840304098B12068006812
:100D500000F0040070B12068006820F004002168F1
:100D6000086094F85C1008208840A860606D40F02E
:100D70000100606594F85C1001208840304068B143
:100D80002068406900F0800040B194F85C100120B8
:100D90008840A860606D40F00200606594F85C10C7
:100DA00004208840304068B12068006800F00200EC
:100DB00040B194F85C1004208840A860606D40F059
:100DC0000400606594F85C1010208840304078B3CF
:100DD0002068006800F0080050B394F85C10102000
:100DE0008840A8602068006800F4802080B12068F6
:100DF000006800F4002028B9206CC8B12046216C9E
:100E0000884715E0A06C98B12046A16C88470FE098
:100E10002068006800F4807028B92068006820F01D
:100E2000080021680860206C10B12046216C8847BA
:100E300094F85C10202088403040002865D020685D
:100E4000006800F0100000285FD094F85C102020AB
:100E50008840A86094F83500052828D120680068EB
:100E600020F01600216808602068406920F08000AA
:100E700021684861206C08B9A06C28B1206800681E
:100E800020F008002168086094F85C103F2088403A
:100E9000A86000BF002084F8340000BF012084F85F
:100EA0003500206D10B12046216D8847F8BD2068BF
:100EB000006800F4802080B12068006800F4002001
:100EC00028B9606C10B12046616C88471DE0E06B6A
:100ED000D8B12046E16B884717E02068006800F42D
:100EE000807068B92068006820F0100021680860F0
:100EF00000BF002084F8340000BF012084F83500D2
:100F0000E06B10B12046E16B8847606D38B3606DCF
:100F100000F00100F0B1052084F835002068006879
:100F200020F001002168086000BF0098401C00907C
:100F3000B84200D905E02068006800F001000028F0
:100F4000F3D100BF00BF002084F8340000BF0120AF
:100F500084F83500E06C10B12046E16C884700BF92
:100F6000A4E70000140000202DE9F041044600250C
:100F700000F076F9074614B90120BDE8F081606AF7
:100F800000B100BF00BF002084F8340000BF022081
:100F900084F835002068006820F0010021680860AE
:100FA0000AE000F05DF9C01B052805D92020606526
:100FB000032084F83500E0E72068006800F00100B5
:100FC0000028EED12068056821480540D4E90101D8
:100FD0000843E16808432169084361690843A1693E
:100FE0000843E1690843216A08430543606A04280D
:100FF00003D1D4E90B01084305432068056020684C
:10100000456925F00705606A0543606A04280DD12B
:10101000A06A0543E06A48B12046FFF779FA28B193
:1010200040206065012084F83500A6E7206845610E
:101030002046FFF753FA064694F85C103F2088409C
:10104000B06000206065012084F83500002094E73E
:101050003F8010F0F8B502460B4600250024002022
:101060000021DCE0012606FA01F51E6806EA050407
:10107000AC4273D15E68022E02D05E68122E13D18C
:10108000CF0802F1200656F827004E07F70E0F266C
:10109000BE40B0434F07FF0E1E69BE403043CF082D
:1010A00002F1200646F8270010684F000326BE40D4
:1010B000B0431E7906F003064F00BE403043106077
:1010C0005E68012E08D05E68022E05D05E68112E83
:1010D00002D05E68122E13D190684F000326BE40E6
:1010E000B0434F00DE68BE40304390605068012638
:1010F0008E40B0431E79C6F300168E4030435060D8
:10110000D0684F000326BE40B0434F009E68BE40EB
:101110003043D0605E6806F08056B6F1805F7DD1C6
:1011200000BF00260096404E366846F480463E4F8B
:101130003E603E46366806F48046009600BF00BF1B
:101140003A4E8F0856F827008E07370F0F26BE40FD
:10115000B043374EB24202D1002624E05EE0354E65
:10116000B24201D101261EE0334EB24201D1022625
:1011700019E0324EB24201D1032614E0304EB242A1
:1011800001D104260FE02F4EB24201D105260AE01C
:101190002D4EB24201D1062605E02C4EB24201D1BD
:1011A000072600E008268F073F0FBE4030431F4E42
:1011B0008F0846F82700264E3068A0435E6806F484
:1011C0008036B6F5803F00D12043214E3060361D79
:1011D0003068A0435E6806F40036B6F5003F00D1E3
:1011E00020431B4E361D3060361D3068A0435E68BC
:1011F00006F48016B6F5801F00D12043144E083641
:101200003060361D3068A0435E6806F40016B6F5FF
:10121000001F00D120430E4E0C363060491C1029AF
:10122000FFF420AFF8BD0000443802400838014008
:10123000000002400004024000080240000C02408E
:10124000001002400014024000180240001C02403E
:10125000003C01400AB1816101E00B0483617047E9
:10126000014800687047000008000020034800683B
:1012700003490978084401490860704708000020C4
:101280001000002010B50D48006840F400700B49B4
:1012900008600846006840F48060086008460068FE
:1012A00040F480700860032000F0A2F8002000F0F5
:1012B00007F800F02BF8002010BD0000003C0240B1
:1012C00070B504460E4800784FF47A71B1FBF0F027
:1012D0000C490968B1FBF0F5284600F0FFFB08B1A6
:1012E000012070BD102C07D200222146501E00F0B4
:1012F00041F80548046001E00120F2E70020F0E732
:1013000010000020140000200C00002008B500BFD1
:10131000002000900E48006840F480400C490860AE
:101320000846006800F48040009000BF00BF00BF86
:1013300000200090081F006840F08050091F0860DE
:101340000846006800F08050009000BF00BF08BD54
:101350004438024001460846002809DB00F01F031C
:1013600001229A4043099B0003F1E023C3F80021C6
:1013700000BF70472DE9F05F80460D4616460027F6
:1013800002F06CFD074639462A46334601F0070055
:10139000C0F1070ABAF1040F02D94FF0040A01E0C4
:1013A000C0F1070AD14600F1040ABAF1070F02D2D0
:1013B0004FF0000A01E0A0F1030AD4464FF0010A01
:1013C0000AFA09FAAAF1010A0AEA020A0AFA0CFA66
:1013D0004FF0010B0BFA0CFBABF1010B0BEA030B0B
:1013E0004AEA0B042146404602F040FDBDE8F09F6A
:1013F00000BF00F00702064B19684FF6FF031940C3
:10140000044B0B4343EA0221014B196000BF7047B4
:101410000CED00E00000FA0570B504460D460CB96D
:10142000012070BD5848006800F00F00A84209D2A2
:1014300055490D700846006800F00F00A84201D021
:101440000120EEE7207800F0020002281DD120786C
:1014500000F00400042805D14C48006840F4E05036
:101460004A490860207800F00800082805D147485C
:10147000006840F46040454908604448006820F036
:10148000F000A168084341490860207800F001009D
:10149000A8B36068012807D13C4808380068C0F349
:1014A0004040B8B90120BCE76068022802D06068FB
:1014B000032807D1354808380068C0F3406048B9B0
:1014C0000120AEE7314808380068C0F3400008B991
:1014D0000120A6E72D48006820F00300616808435A
:1014E0002A490860FFF7BCFE064609E0FFF7B8FE90
:1014F000801B41F28831884202D9032091E707E03E
:101500002248006800F00C006168B0EB810FEDD15B
:101510001D48006800F00F00A84209D91A490D7053
:101520000846006800F00F00A84201D0012078E7CB
:10153000207800F00400042807D11448006820F443
:10154000E050E168084311490860207800F0080085
:10155000082808D10D48006820F46040216940EA5D
:10156000C1000A49086000F03DF808490968C1F364
:101570000311074A515CC840064908600020FFF784
:101580009FFE00204DE70000003C0240083802406A
:10159000D03F000814000020014800687047000098
:1015A0001400002000B5FFF7F7FF04490968C1F3F4
:1015B0008221034A515CC84000BD00000838024047
:1015C000E03F000800B5FFF7E7FF04490968C1F3F1
:1015D0004231034A515CC84000BD00000838024057
:1015E000E03F00082DE9F047002400250026A14631
:1015F0002548006800F00C0020B1042805D0082818
:101600003AD105E0DFF8849039E0DFF8849036E0E5
:101610001D48001F006800F03F041B48001F0068C1
:1016200000F4800078B11A481749091F0968C1F30E
:101630008811A0FB01700146224600233846FEF7C0
:10164000BFFD05460EE011480F49091F0968C1F3A7
:101650008811A0FB01700146224600233846FEF7A0
:10166000AFFD05460848001F0068C0F30140401C5C
:101670004600B5FBF6F902E0DFF8109000BF00BFAE
:101680004846BDE8F0870000083802400024F40016
:1016900040787D01F8B504460CB90120F8BD2078EA
:1016A00000F00100002874D0F948006800F00C0038
:1016B00004280DD0F648006800F00C00082813D16B
:1016C000F348001F006800F48000B0F5800F0BD1D4
:1016D000EF4808380068C0F34040002859D06068DF
:1016E000002856D10120D9E700BF6068B0F5803FDF
:1016F00008D1E7480838006840F48030E4490839E8
:1017000008601EE06068B0F5A02F0DD1E0480838F1
:10171000006840F48020DE49083908600846006807
:1017200040F4803008600CE0D9480838006820F4A4
:101730008030D749083908600846006820F48020C6
:10174000086000BF606890B1FFF78AFD054606E0BB
:10175000FFF786FD401B642801D903209EE7CC4893
:1017600008380068C0F340400028F1D011E0FFF7CE
:1017700077FD054606E0FFF773FD401B642801D99D
:1017800003208BE7C24808380068C0F340400028B7
:10179000F1D1207800F0020002285FD1BC48006837
:1017A00000F00C0058B1BA48006800F00C0008289E
:1017B0001CD1B748001F006800F48000B0B9B448DD
:1017C00008380068C0F3400020B1E068012801D06B
:1017D000012063E7AE480838006820F0F80021696E
:1017E00040EAC100AA490839086037E0E06800B360
:1017F0000120A8490860FFF733FD054606E0FFF722
:101800002FFD401B022801D9032047E7A0480838D4
:101810000068C0F340000028F1D09D4808380068F7
:1018200020F0F800216940EAC100994908390860B0
:1018300014E0002097490860FFF712FD054606E016
:10184000FFF70EFD401B022801D9032026E7904830
:1018500008380068C0F340000028F1D1207800F07B
:10186000080008282CD16069A8B101208A490860C5
:10187000FFF7F6FC054606E0FFF7F2FC401B0228E6
:1018800001D903200AE782486C300068C0F34000A9
:101890000028F1D014E000207F490860FFF7E0FC49
:1018A000054606E0FFF7DCFC401B022801D90320B7
:1018B000F4E677486C300068C0F340000028F1D1AE
:1018C000207800F00400042870D1002670483830D9
:1018D000006800F0805090B900BF002000906C4874
:1018E0003830006840F08050694938310860084657
:1018F000006800F08050009000BF00BF01266748DC
:10190000006800F48070B0B96448006840F48070EA
:1019100062490860FFF7A4FC054606E0FFF7A0FC5B
:10192000401B022801D90320B8E65C48006800F497
:1019300080700028F2D000BFA068012808D1544868
:101940006830006840F001005149683108601DE0CE
:10195000A06805280DD14E486830006840F00400AA
:101960004B49683108600846006840F00100086093
:101970000CE047486830006820F0010044496831B5
:1019800008600846006820F00400086000BFA068F6
:10199000A8B1FFF765FC054609E0FFF761FC401BB5
:1019A00041F28831884202D9032077E626E03848A0
:1019B00068300068C0F340000028EED013E0FFF765
:1019C0004FFC054608E0FFF74BFC401B41F2883115
:1019D000884201D9032061E62D4868300068C0F3D1
:1019E00040000028EFD1012E07D129483830006887
:1019F00020F0805026493831086000BFA069B8B394
:101A00002348006800F00C0008285ED0A069022876
:101A100046D100201F490866FFF722FC054606E074
:101A2000FFF71EFC401B022801D9032036E61848A8
:101A300008380068C0F340600028F1D1D4E90701FC
:101A40000843616A40EA81110122A06AC2EB50009A
:101A500041EA00412C20005D41EA00600C49091F69
:101A6000086001200B490866FFF7FAFB054607E00E
:101A70002DE0FFF7F5FB401B022801D903200DE6FE
:101A8000034808380068C0F340600028F1D01EE029
:101A90000838024000004742800E47420070004074
:101AA00000200C490866FFF7DBFB054606E0FFF760
:101AB000D7FB401B022801D90320EFE50648006848
:101AC000C0F340600028F2D101E00120E6E50020EB
:101AD000E4E50000000047420038024070B50446CB
:101AE0002546681EB0F1807F01D301200FE0681EFB
:101AF0004FF0E02148610F214FF0FF3002F0B6F9BE
:101B000000204FF0E021886107200861002070BDAF
:101B100010B5024600BF92F83C00012801D1022016
:101B200010BD012082F83C0000BF022082F83D0079
:101B3000106843681068846823F0700308680343E2
:101B400024F080044868044310684360106884608F
:101B5000012082F83D0000BF002082F83C0000BF59
:101B600000BFDDE710B504460CB9012010BD94F8A4
:101B70003D0028B9002084F83C00204600F00CF815
:101B8000022084F83D00211D206801F0DDFC0120C9
:101B900084F83D000020E9E708B50168B1F1804F05
:101BA0000FD100BF002100911149096841F00101E6
:101BB0000F4A11601146096801F00101009100BF50
:101BC00015E00C4A0168914211D100BF002100913B
:101BD0000749091D096841F40031054A121D1160C9
:101BE0001146096801F40031009100BF00BF08BD33
:101BF00040380240004401402DE9F04104460D46C2
:101C000000BF94F83C00012802D10220BDE8F08119
:101C1000012084F83C0000BF022084F83D002068C9
:101C2000866826F0770626F47F4620688660286856
:101C3000502833D00CDC202850D004DC00284BD0B6
:101C4000102851D149E0302849D040284CD139E002
:101C500060282DD0702807D0B0F5805F03D0B0F594
:101C6000005F41D10DE040E0D5E902136A682068C9
:101C700001F0D6FC2068866846F07706206886600A
:101C800033E0D5E902136A68206801F0C9FC2068D6
:101C9000806840F480402168886026E0EA686968CE
:101CA000206801F0ADFD5021206801F0C4FC1CE06B
:101CB000EA686968206801F0B6FD6021206801F0DB
:101CC000BAFC12E0EA686968206801F099FD4021D9
:101CD000206801F0B0FC08E000BF00BF00BF296829
:101CE000206801F0A8FC00E000BF00BF012084F8DC
:101CF0003D0000BF002084F83C0000BF00BF85E726
:101D000010B586B00446142101A8FEF791FA2249C5
:101D1000206888421DD100BF002000901F48006845
:101D200040F080001D4908600846006800F080000F
:101D3000009000BF00BF8814019002200290002094
:101D4000039004900220059001A91548FFF782F93D
:101D500020E01449206888421CD100BF0020009078
:101D60000E48006840F020000C49086008460068F2
:101D700000F02000009000BF00BF40200190022032
:101D800002900020039004900320059001A90648CA
:101D9000FFF760F906B010BD000C0040303802407B
:101DA000001C0240004401400014024070B504468B
:101DB0000D46164600BF94F83C00012801D10220D0
:101DC00070BD012084F83C0000BF022084F83D0073
:101DD00036B1042E1BD0082E31D00C2E5ED145E03A
:101DE0002946206801F030FC2068806940F0080036
:101DF000216888612068806920F00400216888617A
:101E000020688069296908432168886147E029467C
:101E1000206801F051FC2068806940F4006021686E
:101E200088612068806920F480602168886120686A
:101E30008069296940EA0120216888612FE02946EC
:101E4000206801F077FC2068C06940F00800216834
:101E5000C8612068C06920F004002168C86120685A
:101E6000C069296908432168C86118E029462068CB
:101E700001F09CFC2068C06940F400602168C861E2
:101E80002068C06920F480602168C8612068C0694A
:101E9000296940EA01202168C86100E000BF00BF55
:101EA000012084F83D0000BF002084F83C0000BF02
:101EB00000BF85E710B504460CB9012010BD94F8A9
:101EC0003D0028B9002084F83C00204600F00CF8C2
:101ED000022084F83D00211D206801F035FB01201F
:101EE00084F83D000020E9E708B50A4A01689142FC
:101EF0000FD100BF002100910749096841F0080196
:101F0000054A11601146096801F00801009100BFFF
:101F100000BF08BD000C0040403802407047000080
:101F20002DE9F0470446206805682068C6682068E7
:101F300047694FF00008C14605F00F08B8F1000FDF
:101F40000AD105F0200038B106F0200020B120466B
:101F500001F0A7FCBDE8F087B8F1000F6ED007F0E4
:101F6000010018B906F49070002867D005F0010050
:101F700030B106F4807018B1E06B40F00100E0630E
:101F800005F0040030B107F0010018B1E06B40F03B
:101F90000200E06305F0020030B107F0010018B163
:101FA000E06B40F00400E06305F0080030B107F09A
:101FB000010018B1E06B40F00800E063E06B70B323
:101FC00005F0200028B106F0200010B1204601F0F5
:101FD00068FC20684069C0F38019E06B00F00800DD
:101FE00010B9B9F1000F23D0204601F03AFC206867
:101FF000406900F04000402816D12068406920F078
:10200000400021684861606B50B11748616B0865FA
:10201000606BFEF775FE10B1606B016D88470CE0D8
:102020002046FFF77BFF08E02046FFF777FF04E03C
:102030002046FFF773FF0020E0638BE705F0800088
:1020400030B106F0800018B1204601F031FE81E782
:1020500005F0400030B106F0400018B1204601F014
:1020600010FC77E700BF75E74F38000810B504464D
:102070000CB9012010BDA06900B100E000BF94F8C8
:10208000390028B9002084F83800204600F028F8EC
:10209000242084F839002068C06820F400502168AA
:1020A000C860204601F050FC2068006920F4904090
:1020B000216808612068406920F02A002168486191
:1020C0002068C06840F400502168C8600020E063C8
:1020D000202084F8390084F83A000020CAE7000084
:1020E00010B586B00446142101A8FEF7A1F82E49C8
:1020F0002068884255D100BF002000902B4800681E
:1021000040F40030294908600846006800F40030B7
:10211000009000BF00BF00BF00200090234810388F
:10212000006840F001002149103908600846006845
:1021300000F00100009000BF00BF0C2001900220C1
:10214000029001200390032004900720059001A92C
:102150001748FEF77FFF1748174908604FF00060E7
:1021600048604021144881600021C1604FF48061C3
:102170000161002141618161C16101624162FEF73B
:10218000F3FE08B1FEF71AFA00BF0B482063846320
:1021900000BF002211462620FFF7ECF82620FFF7AB
:1021A000D9F806B010BD000000440040403802409D
:1021B00000000240A06002402002002070477047EB
:1021C00000BFFEE708B5054909680143034A1160ED
:1021D000114609680140009100BF08BD3038024037
:1021E00008B5054909680143034A116011460968A9
:1021F0000140009100BF08BD3038024008B50549D4
:1022000009680143034A11601146096801400091C1
:1022100000BF08BD3038024008B5054909680143D0
:10222000034A1160114609680140009100BF08BDD2
:102230004038024008B5054909680143034A116066
:10224000114609680140009100BF08BD44380240B2
:10225000F0B503460A4600240021106890FAA0F069
:10226000B0FA80F47FE00125A540106800EA05017E
:10227000002977D050681D6891FAA1F6B6FA86F663
:1022800077000326BE40B54391FAA1F6B6FA86F66A
:10229000760000FA06F635431D6000BF506801283D
:1022A00002D05068022814D190689D6891FAA1F676
:1022B000B6FA86F677000326BE40B54391FAA1F63A
:1022C000B6FA86F6760000FA06F635439D6000BF42
:1022D00000BF1069DD6891FAA1F6B6FA86F67700BC
:1022E0000326BE40B54391FAA1F6B6FA86F676000B
:1022F00000FA06F63543DD6000BF5068022831D190
:1023000091FAA1F0B0FA80F0082814D250691D6A41
:1023100091FAA1F6B6FA86F6B7000F26BE40B5438D
:1023200091FAA1F6B6FA86F6B60000FA06F635433B
:102330001D6200BF16E050695D6A0E0A96FAA6F6A5
:10234000B6FA86F6B7000F26BE40B5430E0A96FAD7
:10235000A6F6B6FA86F6B60000FA06F635435D62D2
:1023600000BF00BF641C1068E04000287FF47BAF12
:102370005068012802D05068022809D1D568106839
:102380005E68864300FB05F73E435E6000BF00BF0A
:102390000020F0BDF0B5002400252B4EB1FBF6F473
:1023A000466826F03F0626434660284EB24201D8D2
:1023B000661C07E04FF4967666434FF47A77B6FBD7
:1023C000F7F6761C076A27F03F073E4306621F4E6A
:1023D000B24224D96BB902EB4206B1FBF6F6C6F362
:1023E0000B060EB9012615E002EB4206B1FBF6F62C
:1023F00010E002EBC20606EB0216B1FBF6F6C6F3DE
:102400000B060EB9012605E002EBC20606EB02162A
:10241000B1FBF6F646F4004646EA03050CE056002A
:10242000B1FBF6F6C6F30B06042E01D2042602E039
:102430005600B1FBF6F63546C6694CF6FF77BE434B
:102440002E43C661F0BD000040420F00A08601008F
:10245000016821F0400101607047C16821F001016D
:10246000C1607047016821F08001016070477FB54D
:1024700004460D4600BF206820F00100206000BF28
:10248000684600F02EF8D5E9012320460299FFF7AF
:1024900081FF6969E868A26848F2FF339A4340EA1D
:1024A00001031A43A26000BF2868216821F01A01C5
:1024B0000143216000BF00BF206840F001002060A0
:1024C00000BF2869216821F480610143216000BFB9
:1024D000002004B070BDC26822F0FE020A43C26050
:1024E000704710B5044600F09DFF2060206800F0A2
:1024F00065FF6060606800F071FFA060606800F0D8
:102500007FFFE06010BD000002480068C0F3881043
:10251000704700000438024030B50246012300BF76
:102520001068C0F3801038BBD1E9000420438C68E8
:102530002043CC6820430C6920434C6920438C69BC
:102540002043CC6920430C6A204314684FF6BF75C2
:10255000AC4320431060506820F004004C6940EA0E
:1025600014405060086AB0F5005F04D1486A84B234
:10257000146100BF00BF0023D06920F40060D06167
:10258000184630BD426822F010020A43426070478C
:10259000016921F490410161416921F02A01416101
:1025A0007047C16841F40051C16070472DE9FF4197
:1025B00004460D4601270026204600F059F8002861
:1025C00045D1E9686868084329690843A96908434F
:1025D000E16849F20C6291430843E060A868216910
:1025E00021F440510143216100BF6869616921F410
:1025F00040710143616100BF6846FFF772FF1648F2
:10260000844201D1039E17E01448844201D1029E06
:1026100012E01348844201D1029E0DE01148844229
:1026200001D1039E08E01048844201D1029E03E0DC
:102630000E48844200D1029E4EB1286838B100276E
:10264000314620462B68AA6900F017F800BF3846CB
:1026500004B0BDE8F08100000010014000440040DB
:102660000048004000140140004C00400050004071
:102670000146C868C0F340307047F0B5B2F5004F6E
:102680004ED101EBC10404EB01145D00B4FBF5F481
:102690006425B4FBF5F4250101EBC10404EB01143E
:1026A0005E00B4FBF6F401EBC10606EB01165F0019
:1026B000B6FBF7F66427B6FBF7F606EBC60707EBA3
:1026C0000616A4EB8604322606EBC4046426B4FB8B
:1026D000F6F404F0F80405EB440501EBC10404EB47
:1026E00001145E00B4FBF6F401EBC10606EB011623
:1026F0005F00B6FBF7F66427B6FBF7F606EBC607F6
:1027000007EB0616A4EB8604322606EBC404642607
:10271000B4FBF6F404F007042C44A4B284604CE04B
:1027200001EBC10404EB01149D00B4FBF5F401EBD3
:10273000C10505EB01159E00B5FBF6F56426B5FB5A
:10274000F6F505EBC50606EB0515A4EB8504322569
:1027500005EB04146425B4FBF5F404F0F00401EB7C
:10276000C10505EB01159E00B5FBF6F56426B5FB2A
:10277000F6F504EB051501EBC10404EB01149E0012
:10278000B4FBF6F401EBC10606EB01169F00B6FBA5
:10279000F7F66427B6FBF7F606EBC60707EB061657
:1027A000A4EB8604322606EB04146426B4FBF6F48C
:1027B00004F00F042C44A4B28460F0BD1FB50020C7
:1027C00000900190029003903D483E4908604FF40C
:1027D0008030486000213B48816001210161017621
:1027E000002180F82010C162374981620021C16058
:1027F0000821C161002180F8301001214161FDF7FD
:10280000A5FF08B1FDF7DAFE00200090012001903D
:102810000020029069462B48FDF7D2FE08B1FDF773
:10282000CDFE012000900220019069462548FDF769
:10283000C7FE08B1FDF7C2FE0820009003200190FA
:1028400069462048FDF7BCFE08B1FDF7B7FE092038
:1028500000900420019069461A48FDF7B1FE08B1C6
:10286000FDF7ACFE0A20009005200190694615484E
:10287000FDF7A6FE08B1FDF7A1FE0B200090062093
:10288000019069460F48FDF79BFE08B1FDF796FEE3
:102890000E2000900720019069460A48FDF790FE3F
:1028A00008B1FDF78BFE0F200090082001906946CB
:1028B0000448FDF785FE08B1FDF780FE1FBD00004E
:1028C000002001402C0000200100000F1FB5002057
:1028D00000900190029003901548164908604FF44B
:1028E000803048600021134881600161017680F8E2
:1028F0002010C162104981620021C1600121C161C3
:10290000002180F8301001214161FDF71FFF08B15F
:10291000FDF754FE05200090012001900020029058
:1029200069460448FDF74CFE08B1FDF747FE1FBDA0
:1029300000220140740000200100000F10B50F4874
:102940000F4908600220486000210D4881604FF067
:102950000071C1604FF4402101614FF4A001416159
:102960000021017641768176C17601774177FDF7C6
:10297000C9FF08B1FDF722FE10BD00000064004051
:10298000BC00002010B50F480F49086002204860C5
:1029900000210D4881604FF00071C1604FF440216B
:1029A00001614FF4A00141610021017641768176F9
:1029B000C17601774177FDF7A5FF08B1FDF7FEFD70
:1029C00010BD000000680040E40000201CB500209D
:1029D000009001900A480B4908600846FEF73BF951
:1029E00008B1FDF7EBFD0020009001900022694640
:1029F0000448FEF703F908B1FDF7E0FD1CBD000037
:102A0000007400400C01002008B500BF00200090B9
:102A10000A48006840F40010084908600846006849
:102A200000F40010009000BF00BF002211461120EA
:102A3000FEF7A0FC1120FEF78DFC08BD30380240E7
:102A400000B587B0142102A8FDF7F2FB00BF0020FB
:102A50000190E948006840F01000E7490860084626
:102A6000006800F01000019000BF00BF00BF002010
:102A700001900846006840F00200086008460068BF
:102A800000F00200019000BF00BF00BF00200190D5
:102A90000846006840F0400008600846006800F002
:102AA0004000019000BF00BF00BF00200190084619
:102AB000006840F0080008600846006800F0080060
:102AC000019000BF00BF00BF0020019008460068D1
:102AD00040F0040008600846006800F0040001901F
:102AE00000BF00BF00BF002001900846006840F40E
:102AF000807008600846006800F48070019000BF94
:102B000000BF00BF002001900846006840F00100AF
:102B100008600846006800F00100019000BF00BF97
:102B200000BF002001900846006840F08000086067
:102B30000846006800F08000019000BF00BF00BFA1
:102B4000002001900846006840F020000860084618
:102B5000006800F02000019000BF00BF00224FF687
:102B60004701A648FEF776FB00224FF48A51A4489D
:102B7000FEF770FB00224FF48451A248FEF76AFB77
:102B8000002249F68041A048FEF764FB00224FF482
:102B9000EE619E48FEF75EFB002240F6BC419C4879
:102BA000FEF758FB00224FF410619A48FEF752FBE3
:102BB000002248F668619848FEF74CFB38200290E6
:102BC000032003900020049002A98C48FEF742FAEB
:102BD0004FF64700029001200390002004900590DA
:102BE00002A98648FEF736FA4FF4055002900020FD
:102BF0000390049002A98448FEF72CFA4CF2870057
:102C0000029000200390049002A98048FEF722FA67
:102C10004FF48A5002900120039000200490059008
:102C200002A97748FEF716FA4FF48450029001206B
:102C3000039000200490059002A97248FEF70AFA5A
:102C400043200290032003900020049002A96D48C5
:102C5000FEF700FA49F68040029001200390002020
:102C60000490059002A96848FEF7F4F94FF4EE606D
:102C700002900120039000200490059002A963486F
:102C8000FEF7E8F94FF44060029002200390002024
:102C90000490032005900C20069002A95848FEF7E6
:102CA000D9F940F6AC400290012003900020049036
:102CB000059002A95648FEF7CDF940200290002069
:102CC0000390049002A95248FEF7C4F94FF4106033
:102CD00002900120039000200490059002A94D4825
:102CE000FEF7B8F910200290012003900490002014
:102CF000059002A94648FEF7ADF943F60800029098
:102D0000032003900020049002A94048FEF7A2F996
:102D100048F6606002900120039000200490059026
:102D200002A93D48FEF796F94FF23F0002900320BA
:102D300003900020049002A93848FEF78BF94FF465
:102D40008040029000200390049002A93248FEF7D0
:102D500081F901200290032003900020049002A931
:102D60002B48FEF777F914200290002003900120F1
:102D7000049002A92848FEF76DF94FF40070029004
:102D800000200390049002A91D48FEF763F9082073
:102D900002900120039004900020059002A91E4893
:102DA000FEF758F93F200290032003900020049082
:102DB00002A91548FEF74EF94FF47060029000200A
:102DC0000390049002A91548FEF744F930200290C0
:102DD000032003900020049002A90948FEF73AF965
:102DE0004FF4F060029000200390049002A9034881
:102DF000FEF730F907B000BD303802400010024045
:102E0000000802400004024000180240000C02408A
:102E10000020024000000240001C0240001402405A
:102E200000B58DB0182107A8FDF702FA182101A8F6
:102E3000FDF7FEF90220FFF7C5F94FF4407001904D
:102E400002200290032003900120049005900420AA
:102E5000069001A91248FFF7FBF94FF40010FFF7A5
:102E6000DBF91048FFF7F9FA0E48FFF7F1FA0D48C1
:102E7000FFF7F8FA002007900B480890002009900F
:102E80000A904FF480600B9000010C9007A9054850
:102E9000FFF7EDFA00210348FFF71DFB0DB000BD61
:102EA0000004024000540040801A060000B58DB0B6
:102EB000182107A8FDF7BCF9182101A8FDF7B8F9FA
:102EC0000220FFF77FF94FF440600190022002904A
:102ED000032003900120049005900420069001A98E
:102EE0001248FFF7B5F94FF48000FFF795F9104845
:102EF000FFF7B3FA0E48FFF7ABFA0D48FFF7B2FA47
:102F0000002007900B480890002009900A904FF489
:102F100080600B9000010C9007A90548FFF7A7FA05
:102F200000210348FFF7D7FA0DB000BD00040240AE
:102F300000580040801A060000B58DB0182107A87F
:102F4000FDF776F9182101A8FDF772F98020FFF747
:102F500039F94FF4C07001900220029003200390D1
:102F60000120049005900420069001A91248FFF763
:102F70006FF94FF40000FFF74FF91048FFF76DFAB3
:102F80000E48FFF765FA0D48FFF76CFA002007902E
:102F90000B480890002009900A904FF480600B9035
:102FA00000010C9007A90548FFF761FA00210348CA
:102FB000FFF791FA0DB000BD001C0240005C00401C
:102FC000801A060000B591B0282107A8FDF730F956
:102FD000182101A8FDF72CF94FF480501C4909680D
:102FE00001431B4A1160114609680140009100BF6E
:102FF00000BF0120FFF7F4F8E020019002200290CA
:10300000032003900020049005900520069001A95C
:103010001048FFF71DF9002007904FF482700890C8
:10302000002009900A900B904FF400700C9008203B
:103030000D9000200E900F900A20109007A90648CE
:10304000FFF76AFA00210448FFF79CFA11B000BDAF
:1030500044380240000002400030014000B591B009
:10306000282107A8FDF7E4F8182101A8FDF7E0F8EA
:103070004FF48040244909680143234A11601146F6
:1030800009680140009100BF00BF8011FFF7A8F858
:103090000420FFF7A5F8022001900290032003907E
:1030A0000020049005900520069001A91748FFF71D
:1030B000CFF80C2001900220029003200390002002
:1030C000049005900520069001A91148FFF7C0F86B
:1030D000002007904FF482700890002009900A9019
:1030E0000B904FF400700C9000200D900E900F90FC
:1030F0000A20109007A90748FFF70EFA002105489B
:10310000FFF740FA11B000BD4038024000200240F5
:10311000000802400038004000B587B01C21684616
:10312000FDF786F814481549086000204860002122
:1031300012488160C16001618161FEF713FD08B131
:10314000FDF73CFA0D48FEF7B5FE08B1FDF736FA7B
:1031500060200090002001900290049000226946B7
:103160000648FEF723FE08B1FDF728FA0348FEF7EC
:10317000C7FD07B000BD000000440140A0010020D1
:1031800000B587B000200390049005900690019050
:1031900002904FF08040134908604F2048600021A2
:1031A00010488160491EC160002101618161FEF704
:1031B000D9FC08B1FDF702FA4FF48050039003A93F
:1031C0000848FEF719FD08B1FDF7F8F90020019055
:1031D000029001A90348FEF79BFC08B1FDF7EEF948
:1031E00007B000BD2001002000B589B00020079085
:1031F00008901C216846FDF71BF816481649086020
:1032000000204860002114488160C1600161816133
:10321000FEF750FE08B1FDF7D1F9002007900890A5
:1032200007A90D48FEF774FC08B1FDF7C7F9602047
:103230000090002001900290049008226946064800
:10324000FEF7B4FD08B1FDF7B9F90348FEF758FDE4
:1032500009B000BD000C00406001002000B58DB039
:103260001C2106A8FCF7E4FF18216846FCF7E0FFE4
:103270001020FEF7DFFF0120FEF7C0FF4FF4C06013
:103280000090022001900320029000200390012072
:1032900004900720059069460D48FEF7D9FF4FF4CA
:1032A000E130069000200790089009900C200A90C9
:1032B00000200B900C9006A90648FFF777F9054807
:1032C000FFF766F90348FFF76CF90DB000BD000089
:1032D000000002400010014010B50B480B49086087
:1032E0004FF4E1304860002108488160C16001610D
:1032F0000C21416100218161C161FEF7B7FE08B177
:10330000FDF75CF910BD000000440040E001002022
:1033100000B58DB01C2106A8FCF78AFF182168466D
:10332000FCF786FF2020FEF785FF4020FEF766FFB2
:103330000420FEF763FF4FF48040009002200190CC
:1033400003200290002003900120049008200590A3
:1033500069461548FEF77CFF80200090022001900E
:103360000320029000200390012004900820059083
:1033700069460E48FEF76CFF4FF4E13006900020DE
:103380000790089009900C200A9000200B900C9058
:1033900006A90748FFF70AF90548FFF7F9F80448B6
:1033A000FFF7FFF80DB000BD001802400008024012
:1033B0000014014000BFFEE770477047014600BFA0
:1033C0000448006800F0F0000009034A125C21FA8A
:1033D00002F0704708380240D03F0008014600BFA5
:1033E0000548006800F4E050044A02EB902002789F
:1033F00021FA02F07047000008380240E03F000860
:10340000014600BF0548006800F46040044A02EB32
:103410005030027821FA02F070470000083802406C
:10342000E03F000810B5002400BF0C48006800F021
:103430000C0020B1042804D0082809D103E0084C6E
:1034400008E0084C06E0082000F00EF8044601E011
:10345000034C00BF00BF204610BD000008380240EA
:103460000024F40040787D012DE9F0410446002558
:103470000026002700BF1548006800F480000646BB
:103480001EB1B6F5800F04D101E0114D03E0114DDE
:1034900001E00F4D00BF00BF082C14D100BF0B4846
:1034A000006800F03F00B5FBF0F8FFF72DF808FBCF
:1034B00000F80648006800F44030012101EB10409C
:1034C0004000B8FBF0F73846BDE8F0810438024010
:1034D0000024F40040787D01704710B5FDF7C6FE6A
:1034E00010BD00001448006840F4700012490860E4
:1034F0001248006840F001001049086000200F49A0
:10350000083108600D4800680D4908400B49086003
:103510000C48091D0860081F006820F48020091F5E
:103520000860002005490C3108604FF00060024936
:10353000803908607047000088ED00E000380240E4
:10354000FFFFF6FE1030002410B50268294B9842A8
:103550000ED0B0F1804F0BD0274B984208D0274BAC
:10356000984205D0264B984202D0264B984203D170
:1035700022F070024B681A431E4B984220D0B0F1E3
:10358000804F1DD01C4B98421AD01C4B984217D02C
:103590001B4B984214D01B4B984211D01A4B9842A7
:1035A0000ED01A4B98420BD0194B984208D0194BA9
:1035B000984205D0184B984202D0184B984203D13C
:1035C00022F44072CB681A4322F080034C6943EA2C
:1035D000040202608B68C3620B688362054B9842E9
:1035E00002D0084B984201D10B6903630123436168
:1035F00010BD000000000140000400400008004031
:10360000000C004000040140004001400044014023
:103610000048014000180040001C0040002000400D
:1036200030B50C46816821F47F4142EA03252543E9
:103630002943816030BD0A46816821F0700142F063
:10364000070319438160704730B5056A25F001050D
:103650000562026A4368846924F0700424F003045C
:103660000D682C4322F002028D682A43104DA842B7
:1036700000D103E00F4DA84206D100BF22F008029E
:10368000CD682A4322F00402094DA84202D0094D18
:10369000A84207D123F4807323F400734D692B43B0
:1036A0008D692B43436084614D684563026230BD80
:1036B000000001400004014030B5056A25F0100506
:1036C0000562026A4368846924F4E04424F4407487
:1036D0000D6844EA052422F020028D6842EA0512B2
:1036E000124DA84200D103E0114DA84207D100BFFE
:1036F00022F08002CD6842EA051222F040020B4D12
:10370000A84202D00A4DA84209D123F4806323F4D1
:1037100000634D6943EA85038D6943EA850343608D
:1037200084614D688563026230BD00000000014085
:103730000004014030B5056A25F480750562026A0F
:103740004368C46924F0700424F003040D682C431A
:1037500022F400728D6842EA0522124DA84200D17F
:1037600003E0114DA84207D100BF22F40062CD68EA
:1037700042EA052222F480620A4DA84202D00A4D94
:10378000A84209D123F4805323F400534D6943EA3E
:1037900005138D6943EA05134360C4614D68C56331
:1037A000026230BD000001400004014030B5056AEE
:1037B00025F480550562036A4468C26922F4E04238
:1037C00022F440720D6842EA052223F400538D680A
:1037D00043EA0533084DA84202D0084DA84204D15F
:1037E00024F480444D6944EA85144460C2614D6804
:1037F0000564036230BD0000000001400004014088
:1038000030B50B461446026A056A25F001050562CB
:10381000816921F0F00141EA041122F00A021A4301
:103820008161026230BD30B50B461446056A25F051
:10383000100505628169026A21F4704141EA043190
:1038400022F0A00242EA03128161026230BD70B52B
:103850000546AC6B0020E085E0842046FEF75EFB69
:1038600070BD0168C96821F490710268D160016877
:10387000496921F0010102685161202180F83A1064
:10388000704710B504462068C06820F040002168E9
:10389000C860202084F839002046FEF790FC002004
:1038A00010BD70B5044694F83A0022284AD1A068A9
:1038B000B0F5805F13D1A56A206940B920684068DF
:1038C000C0F308002880A06A801CA06219E020686C
:1038D0004068C0B22880A06A401CA06211E0206944
:1038E00038B920684068C1B2A26A501CA062117049
:1038F00007E02068406800F07F01A26A501CA062C7
:103900001170E08D401E80B2E085C8B92068C068A3
:1039100020F020002168C8602068C06820F4807012
:103920002168C8602068406920F001002168486172
:10393000202084F83A002046FEF740FC002070BDAD
:103940000020FCE70220FAE72DE9F0410446206858
:10395000006920F44050E16808432168086121694A
:10396000A068084361690843E16940EA01052068ED
:10397000C06849F20C61884328432168C860206808
:10398000406920F44070A169084321684861E069FA
:10399000B0F5004F7ED1C4492068884203D0C349A6
:1039A000206888425DD1FDF70DFE00EBC00101EB00
:1039B000001061684900B0FBF1F06421B0FBF1F048
:1039C0000601FDF7FFFD00EBC00101EB001061688F
:1039D0004900B0FBF1F7FDF7F5FD00EBC00101EB8D
:1039E000001061684900B0FBF1F06421B0FBF1F018
:1039F00000EBC00101EB0010A7EB8000322101EBCE
:103A0000C0006421B0FBF1F000F0F80006EB4006C6
:103A1000FDF7D8FD00EBC00101EB00106168490023
:103A2000B0FBF1F7FDF7CEFD00EBC00101EB00109C
:103A300061684900B0FBF1F06421B0FBF1F000EBEC
:103A4000C00101EB0010A7EB8000322101EBC000A8
:103A50006421B0FBF1F000F0070030442168886079
:103A600020E1FDF79FFD00EBC00101EB0010616854
:103A70004900B0FBF1F06421B0FBF1F00601FDF765
:103A800091FD00EBC00101EB001061684900B0FB43
:103A9000F1F700E045E0FDF785FD00EBC00101EB2B
:103AA000001061684900B0FBF1F06421B0FBF1F057
:103AB00000EBC00101EB0010A7EB8000322101EB0D
:103AC000C0006421B0FBF1F000F0F80006EB400606
:103AD000FDF768FD00EBC00101EB001061684900D3
:103AE000B0FBF1F7FDF75EFD00EBC00101EB00104C
:103AF00061684900B0FBF1F06421B0FBF1F000EB2C
:103B0000C00101EB0010A7EB8000322101EBC000E7
:103B10006421B0FBF1F000F00700304421688860B8
:103B2000C0E061492068884203D06049206888422B
:103B30005CD1FDF747FD00EBC00101EB00106168AF
:103B40008900B0FBF1F6FDF73DFD00EBC00101EB94
:103B5000001061688900B0FBF1F06421B0FBF1F066
:103B600000EBC00101EB0010A6EB8000322101EB5D
:103B700000106421B0FBF1F000F0F006FDF722FD2B
:103B800000EBC00101EB001061688900B0FBF1F0AF
:103B90006421B0FBF1F006EB0016FDF713FD00EB1E
:103BA000C00101EB001061688900B0FBF1F7FDF77F
:103BB00009FD00EBC00101EB001061688900B0FB5A
:103BC000F1F06421B0FBF1F000EBC00101EB00105B
:103BD000A7EB8000322101EB00106421B0FBF1F073
:103BE00000F00F003044216888605BE0FDF7DAFCEC
:103BF00000EBC00101EB001061688900B0FBF1F639
:103C0000FDF7D0FC00EBC00101EB001061688900FA
:103C1000B0FBF1F06421B0FBF1F000EBC00101EB6F
:103C20000010A6EB8000322101EB00106421B0FBF4
:103C3000F1F000F0F006FDF7B5FC00EBC00101EB80
:103C4000001061688900B0FBF1F06421B0FBF1F075
:103C500006EB0016FDF7A6FC00EBC00101EB00101F
:103C600061688900B0FBF1F7FDF79CFC00EBC00137
:103C700001EB001061688900B0FBF1F06421B0FB3A
:103C8000F1F000EBC00101EB0010A7EB8000322146
:103C900001EB00106421B0FBF1F000F00F003044A4
:103CA00021688860BDE8F0810010014000140140E7
:103CB000014691F8390021282CD18868B0F5805F41
:103CC0000FD10A6A1088C0F308000B6858600869B1
:103CD00018B9086A801C086209E0086A401C08627A
:103CE00005E00B6A581C086218780B685860C88C8D
:103CF000401E80B2C88458B90868C06820F08000AF
:103D00000B68D8600868C06840F040000B68D86055
:103D1000002070470220FCE710B50248FEF700F9CA
:103D200010BD0000E001002000BFFEE710B5FFF766
:103D3000EFFA10BD00B593B0302107A8FCF778FA70
:103D4000142102A8FCF774FA00BF00200190234858
:103D5000006840F08050214908600846006800F083
:103D60008050019000BF00BF002001901C480068F7
:103D700040F480401A4908600846006800F480401A
:103D8000019000BF012007900004089002200D90D0
:103D900041050E910F210F91C02110910221119127
:103DA0000721129107A8FDF775FC08B1FCF706FC86
:103DB0000F20029002200390002004904FF4A050A6
:103DC00005904FF480500690052102A8FDF724FBD2
:103DD00008B1FCF7F3FB13B000BD0000403802400F
:103DE0000070004070B504460E461546267065709A
:103DF000FEF726FE204670BD0146C8780A7910FB02
:103E000002F0C0B270472DE9F04704460E4617464F
:103E10001D46DDE908893A4631462046FFF7E2FFB4
:103E20000446A57084F8038084F804902046BDE819
:103E3000F087000010B5040007D1012405E0FCF76D
:103E400023FA006800B904488047204600F086F84D
:103E50000028F4D010BD00004702000802480068A6
:103E6000C0F30220704700000CED00E010B5002800
:103E700004DB0A07130E054A135406E00A07140E62
:103E8000034A00F00F031B1FD45410BD00E400E0F0
:103E900018ED00E002E008C8121F08C1002AFAD19C
:103EA00070477047002001E001C1121F002AFBD1BA
:103EB000704700001FB5FDF7E5F9FFF73BFFFEF780
:103EC000BFFDFEF7A1FDFEF701FDFEF737FDFEF792
:103ED00059FDFEF77BFDFEF7A3FFFEF7E7FFFFF7B7
:103EE0002BF8FFF76FF8FFF7B9F8FFF711FAFFF7B4
:103EF0007BF9FFF711F9FFF7B1F9FFF7EDF9FEF7DD
:103F00005DFCFFF73DF90520232107230122CDE9C0
:103F10000010022102A8FFF776FF0520FFF78AFFB5
:103F200004460520142103460122CDE9001000219A
:103F30002046FFF768FF0546FFF7F8FE02A8FFF7E7
:103F40005BFF044908702846FFF756FF02490870D6
:103F500000BFFEE70400002005000020F0B50B3094
:103F6000154D20F007010024144A0FE003688B422E
:103F70000BD38B4205D95E1A43184768C3E9006723
:103F800000E04368136002C004E0021D10680028CE
:103F9000ECD12046002802D1286808B10020F0BDED
:103FA000064A07481060074A121A22F00702C0E9C1
:103FB000002401202860D7E72800002024000020EA
:103FC000840200208004002000061016000610164F
:103FD00000000000000000000102030406070809B9
:103FE0000000000001020304084000080000002057
:103FF0002C000000943E0008344000082C000020F3
:1040000054160000A43E000800000000000000005C
:104010000000000010000000010000000024F40077
:104020000000000000000000000000000000000090
:04403000000000008C
:040000050800018965
:00000001FF
