:020000040800F2
:10000000801600209D0100081B2A0008A91A00087C
:10001000192A000891040008E131000800000000DE
:10002000000000000000000000000000F12A0008AD
:100030001D050008000000001D2A0008F32A000822
:10004000B7010008B7010008B7010008B7010008B0
:10005000B7010008B7010008B7010008B7010008A0
:10006000B7010008B7010008B7010008B701000890
:10007000B7010008B7010008B7010008B701000880
:10008000B701000895040008B7010008B70100088F
:10009000B7010008B7010008B7010008B701000860
:1000A000B7010008B7010008B7010008B701000850
:1000B000B7010008B7010008B7010008B701000840
:1000C000B7010008B7010008B7010008B701000830
:1000D000B7010008B7010008D5310008B7010008D2
:1000E000B7010008B7010008B7010008B701000810
:1000F000B7010008B7010008B7010008B701000800
:10010000B7010008B7010008B7010008B7010008EF
:10011000B7010008B7010008B7010008B7010008DF
:10012000B7010008B7010008B7010008B7010008CF
:10013000B7010008B7010008B7010008B7010008BF
:10014000B7010008B7010008B7010008B7010008AF
:10015000B7010008B7010008B7010008B70100089F
:10016000B7010008B7010008B7010008B70100088F
:10017000B7010008B7010008B7010008000000003F
:10018000B7010008B7010008DFF80CD000F094F8C0
:10019000004800479D33000880160020064880472D
:1001A00006480047FEE7FEE7FEE7FEE7FEE7FEE75C
:1001B000FEE7FEE7FEE7FEE7F92A000889010008EE
:1001C0002DE9F05F0546002092469B46884606468C
:1001D000814640241BE0284641464746224600F01F
:1001E00043F853465A46C01A914110D31146184657
:1001F000224600F02AF82D1A67EB01084F462246E6
:100200000120002100F021F817EB00094E41201ECB
:10021000A4F10104DFDC484631462A464346BDE8E6
:10022000F09FD2B201E000F8012B491EFBD27047CB
:100230000022F6E710B513460A4604461946FFF7B2
:10024000F0FF204610BD00F029B8202A04DB203A38
:1002500000FA02F1002070479140C2F1200320FA19
:1002600003F3194390407047202A04DB203A21FA17
:1002700002F00021704721FA02F3D040C2F12002BF
:100280009140084319467047034870470248001DD3
:10029000011F8860001D70471400002010B500F099
:1002A00020F8016919B100220261884701E08068E5
:1002B0008047AFF300800000064C074D06E0E06881
:1002C00040F0010394E8070098471034AC42F6D39D
:1002D000FFF75EFFBC340008DC34000810B5AFF354
:1002E000008070B5FFF7D2FF04680546A4B920204E
:1002F00003F09EF8040011D0094900202C60C4E9E5
:1003000000010849A1602073206160610649A06175
:1003100009B100F00BF8E061204670BDAFF300803A
:1003200000000000DD0200080000000010B5882079
:1003300003F07EF8002801D00021017010BD802953
:1003400002D808B1017809B100207047012100F8F6
:10035000081B704718B100F10802914201D000203B
:100360007047002101707047464910B54A6822F471
:1003700040324A604A6843681A434A6001684A68E2
:1003800022F480724A6001684A68036942EA0322E3
:100390004A6001684A6822F040724A6001684A680F
:1003A00083681A434A6001688A6822F400628A609E
:1003B00001688A68C3681A438A60816A6FF0706254
:1003C000D14201688A6822F070628A6001688A6896
:1003D0000CD0836A1A438A6001688A6822F040520E
:1003E0008A6001688A68C36A1A4301E022F04052B9
:1003F0008A6001688A6822F002028A6001688A685D
:10040000037E42EA43028A6090F8201000290168C6
:100410004A680FD042F400624A6001684A6822F4D8
:1004200060424A6001684A68174C436A04EB4333F0
:100430001A4301E022F400624A600168CA6A22F4A9
:100440007002CA620168CA6A838B104C04EB0353C2
:100450001A43CA6201688A6822F400728A600168DD
:100460008A6890F8303042EA43228A6001688A68DC
:1004700022F480628A6001688A68406942EA8020CA
:10048000886010BD0023014000E0FFFF0000F0FF86
:10049000FEE70000014800F009BB00001C0200203C
:1004A00001681823CAB2103AB2FBF3F2054B6FF39E
:1004B0000901032A9B5CC36500D9091D81650846B3
:1004C000704700009C34000810B5014600208B697D
:1004D0008A6A4FF0C07453B1B3F5005F15D072B1A2
:1004E000012A0CD0022A0AD0032A09D104E01AB149
:1004F000012A06D0022A03D1C96AC90100D5012008
:1005000010BDC96AA142FAD010BD002AF7D0012A55
:10051000F2D0022AF3D0032AF3D010BD70477047FF
:1005200078B50024009490F83C20012A19D00122CB
:1005300080F83C200A6807230568092A13D9EE6869
:100540000A3A02EB420293409E43EE600B788A68BF
:100550000A3B03EB43039A400368DD682A43DA60F1
:1005600010E0022078BD2E6902EB420293409E43C8
:100570002E610B788A6803EB43039A4003681D6978
:100580002A431A614A681F23072A13D205686E6B33
:10059000521E02EB820293409E436E630B790A88DF
:1005A0005B1E92B203EB83039A4003685D6B2A43A0
:1005B0005A6327E005680D2A12D22E6BD21F02EB78
:1005C000820293409E432E630B790A88DB1F92B20E
:1005D00003EB83039A4003681D6B2A431A6311E0FF
:1005E000EE6A0D3A02EB820293409E43EE620B7973
:1005F0000A880D3B92B203EB83039A400368DD6ADD
:100600002A43DA62164B0568144A9D4206D10D68EA
:10061000122D03D1556845F48005556005689D424B
:1006200018D10B68102B01D0112B13D1536843F450
:1006300000035360096810290CD10A490A4A096865
:10064000B1FBF2F101EB8101490000E0491E00918C
:100650000029FBD180F83C40002078BD00230140F8
:10066000002001401000002040420F0070B504003F
:100670004FF0000503D0206C002610B107E00120E8
:1006800070BD204600F01CF8666484F83C60206C65
:10069000C00610D4206C20F4885040F00200206482
:1006A0002046FFF761FE6664206C20F0020040F0F7
:1006B0000100206400E0012584F83C60284670BDFC
:1006C00030B587B0044614216846FFF7B1FD2D48C8
:1006D0002B4B226800252B49143803249A4233D12E
:1006E0000A6842F480720A60096801F48071059119
:1006F000016841F004010160016801F00401059105
:10070000016841F001010160016801F001010591FA
:10071000016841F0020101600068694600F00200D2
:10072000059033208DE83100174800F0F9FA009465
:1007300069461648CDE9014500F0F2FA0094694691
:100740001348CDE9014517E0124B9A4216D10A68C9
:1007500042F480620A60096801F4806105910168D1
:1007600041F0200101600068694600F0200005901A
:1007700080208DE83100084800F0D2FA07B030BD83
:1007800000200140443802400008024000000240BE
:1007900000040240002201400014024070B5040031
:1007A00003D094F8200010B104E0012070BD204671
:1007B00000F082F82068016821F00201016000F079
:1007C0008DFB0546052604E000F088FB401B0A2847
:1007D00011D8206840688007F6D42068016841F08D
:1007E0000101016000F07AFB05460BE000F076FBAA
:1007F000401B0A2806D9606A40F40030606284F821
:100800002060D2E720684068C007EFD0207E012832
:10081000206801683DD021F080010160607E0128E0
:100820002068016838D021F040010160A07E0128D5
:100830002068016833D021F020010160E07E0128AA
:10084000206801682ED041F010010160207F01284E
:100850002068016829D021F008010160607F01282B
:100860002068016824D021F004010160D4E902016C
:100870000843D4E90412114308436168491E084340
:100880002168C86100206062012084F820000020F7
:1008900070BD41F08001C0E741F04001C5E741F083
:1008A0002001CAE721F01001CFE741F00801D4E7A9
:1008B00041F00401D9E70000F0B587B004461421E7
:1008C0006846FFF7B5FC374B374ADFF8D4E01968C4
:1008D000D4F800C03448022503260927103200242A
:1008E000491CF4452CD11960012907D1116841F048
:1008F00000711160116801F000710591016841F407
:1009000080710160016801F480710591016841F016
:1009100080010160006802AA00F0800005904FF499
:100920000070CDE9000582E8D00069461F4800F05C
:10093000F7F94FF40050CDE9000569461C4828E05E
:10094000DFF870E0F44529D1D2F800C04CF0806C9B
:10095000C2F800C0D2F800C001290CF0806CCDF8BC
:1009600014C0196007D1116841F00071116011685D
:1009700001F000710591016841F002010160006819
:10098000694600F00200059042F22000CDE9000522
:10099000094802AA82E8D00000F0C2F907B0F0BD11
:1009A0000064004000000020303802400020024077
:1009B000001C0240006800400004024070B543790A
:1009C000012B1AD0012646710223037105682C6899
:1009D00040F6FE7393409C43D1E900310B439340B2
:1009E00023432B6001680B68C0249440A3430B6031
:1009F000067100214171084670BD022070BD70B5BE
:100A0000040003D02079002510B105E0012070BD5D
:100A10006571204600F008F8022020712561012050
:100A20002071002070BD000010B586B0044614216E
:100A30006846FFF7FDFB1149206888421CD1104829
:100A40000021026842F000520260006800F000508D
:100A500005900B481038026842F0010202600068FD
:100A600000F001000590102000900320CDE9010165
:100A70006946044800F054F906B010BD0074004007
:100A8000403802400000024090F83510022903D09F
:100A90008021416501207047052180F835100068EC
:100AA000016821F001010160002070472DE9F84341
:100AB00004464FF00009CDF8009063484FF41651FA
:100AC000A56D0068B0FBF1F72E6894F85C10082063
:100AD00000FA01F131420FD021680A6852070BD5A4
:100AE0000A6822F004020A6094F85C108840A8604A
:100AF000606D40F00100606594F85C104FF00108F3
:100B000008FA01F0304208D021684969090604D585
:100B1000A860606D40F00200606594F85C100420ED
:100B20008840304208D021680968890704D5A86048
:100B3000606D40F00400606594F85C1010208840FF
:100B4000304218D021680968090714D5A8602068C8
:100B50000168490304D50068000308D5A16C07E0CB
:100B60000168C90503D4016821F008010160216C06
:100B700009B12046884794F85C1020208840304214
:100B800031D021680968C9062DD5A86094F83500D0
:100B900005282068016806D0490347D5006800038E
:100BA0001DD4616C1CE021F01601016020684169D0
:100BB00021F080014161206C08B9A06C20B120684F
:100BC000016821F00801016094F85C103F20884022
:100BD000A86084F8349084F83580216D1FE0E16BC3
:100BE00009B120468847606D00282BD0606DC00792
:100BF00014D0052084F835002068016821F0010137
:100C000001600098401C0090B84203D8206800683A
:100C1000C007F6D184F8349084F83580E16C00295F
:100C200010D001B02046BDE8F04308470168C9056F
:100C3000D5D4016821F01001016084F8349084F863
:100C40003580CCE7BDE8F883100000202DE9F041A5
:100C5000044600F043F906465CB1002584F83450A0
:100C6000022084F835002068016821F0010101604C
:100C70000DE00120BDE8F08100F030F9801B05286F
:100C800005D920206065032084F83500F2E720684C
:100C90000068C007F0D12268116820480140D4E9FB
:100CA00001031843D4E903363343184363691843F7
:100CB000A3691843E3691843236A18430843616A28
:100CC000042903D1D4E90B131943084310602068A9
:100CD0004069666A20F0070130460E430127042868
:100CE0000CD1A06A0643E06A40B12046FFF7ECFB56
:100CF00020B14020606584F83570BAE7206846610D
:100D00002046FFF7CDFB94F85C203F2191408160A5
:100D1000656584F835700020ACE700003F8010F076
:100D20002DE9F84FDFF87CB100224FF001084FF0B9
:100D3000030A4FF00F090BF1040E00BF0B6808FA0D
:100D400002F42340A3426ED14D68022D01D0122D32
:100D50000ED1D50800EB850CDCF820505607F70EB5
:100D600009FA07F6B5430E69BE402E43CCF8206061
:100D7000066855000F790AFA05FC07F0030726EA12
:100D80000C06AF40374307604E68012E05D0022E97
:100D900003D0112E01D0122E0ED18668CF6826EA1C
:100DA0000C06AF40374387604668A6430C79C4F30E
:100DB0000014944034434460C6688C6826EA0C06EC
:100DC000AC403443C4604C68E40065D5364C2568BB
:100DD00045F480452560246822F0030504F480442E
:100DE0000094324C2E19D6F8084895072F0F09FAAF
:100DF00007F5AC432E4DA84201D1002524E02D4D2E
:100E0000A84201D101251FE02B4DA84201D10225A6
:100E10001AE02A4DA84201D1032515E0284DA84229
:100E200002D1042510E037E0264DA84201D1052566
:100E30000AE0254DA84201D1062505E0234DA84230
:100E400001D1072500E00825BD402543C6F8085814
:100E5000DBF800405D464E689C43F60300D51C431A
:100E60002C60DEF8004075464E689C43B60300D502
:100E70001C432C600B4D08352C684E689C43F602D1
:100E800000D51C432C60074D0C352C684E689C43E4
:100E9000B60200D51C432C60521C102AFFF44EAF42
:100EA000BDE8F88F003C014044380240003001406A
:100EB000000002400004024000080240000C024012
:100EC000001002400014024000180240001C0240C2
:100ED0000AB1816170470904FBE70000014880689E
:100EE0007047000004000020024881680278114425
:100EF00081607047040000200B4810B5016841F480
:100F000000710160016841F480610160016841F491
:100F100080710160032000F06FF8002000F006F8F7
:100F200000F024F8002010BD003C024070B50D4DCB
:100F300004464FF47A712878B1FBF0F00A49096849
:100F4000B1FBF0F000F0E2FA48B9102C07D2002211
:100F50002146501E00F030F800206C6070BD01206A
:100F600070BD000004000020100000200A4808B5F1
:100F7000016841F480410160006800F48040009005
:100F80000548001F016841F080510160006800F0D1
:100F90008050009008BD000044380240002809DB62
:100FA00000F01F02012191404009800000F1E02083
:100FB000C0F8001170470000F0B40E4B1B680C46DF
:100FC000C3F30223C3F10705042D00D90425191D1D
:100FD000072901D2002300E0DB1E012606FA05F1F5
:100FE000491E214099409E40761E16403143F0BC78
:100FF00002F08CB90CED00E0064900F00702086829
:101000004FF6FF03184040EA0220034A10430860ED
:10101000704700000CED00E00000FA052DE9F047F4
:101020000E46050065D0DFF81481D8F80000F7B24D
:1010300000F00F00B04207D288F80070D8F8000026
:1010400000F00F00B04254D128683D4C810712D502
:10105000400703D5206840F4E0502060287800075E
:1010600003D5206840F4604020602068A96820F023
:10107000F000084320602878C0072DD03049686808
:101080000839012812D0022813D0032811D009688A
:10109000890700292DDA216821F00301014321602D
:1010A000FFF71CFF814641F2883A0EE00968890388
:1010B000EFE709688901ECE7FFF710FFA0EB0901F2
:1010C000514502D90320BDE8F0872068696800F027
:1010D0000C00B0EB810FEFD1D8F80010404601F0C2
:1010E0000F01B14207D90770006800F00F00B0424D
:1010F00001D00120E7E72878400705D52068E96896
:1011000020F4E050084320602878000706D52068C6
:10111000296920F4604040EAC100206000F036F800
:101120002168084AC1F30311515CC84006490860B0
:101130000020FFF7FBFE0020C5E70000003C024056
:1011400008380240A4340008100000200448054973
:1011500000680968044AC1F38221515CC8407047A5
:101160001000002008380240B43400080448054943
:1011700000680968044AC1F34231515CC8407047B5
:101180001000002008380240B4340008154810B59B
:10119000006810F00C02144813D01449042A0FD030
:1011A000082A0ED10F4C241F2268236802F03F0248
:1011B0005B0207D52068C0F38810A0FB010106E0A0
:1011C000084610BD2168C1F38811A1FB000100236E
:1011D000FEF7F6FF2168C1F30141491C4900B0FB4D
:1011E000F1F010BD083802400024F40040787D0181
:1011F0002DE9F84F050076D02878DFF8F8B2BE4C1C
:10120000C00749D0DBF800105846C1F3810101291D
:1012100008D00068C0F3810002280AD1201D0068B0
:10122000400206D52068800336D568680028E2D0E1
:1012300032E06868B0F5803F10D0B0F5A02F20688C
:1012400010D020F480302060206820F480202060BE
:101250006868A0B1FFF742FE06460CE0206840F443
:101260008030F4E740F480202060F7E7FFF736FE97
:10127000801B642873D820688003F7D50CE0FFF743
:101280002DFE064605E000BFFFF728FE801B642800
:10129000F0D820688003F7D42878DFF860828007D0
:1012A0004FF000093ED5DBF80010584611F00C0F46
:1012B00009D00068C0F3810002280BD18D48001FBF
:1012C0000068400206D42068800715D5E868012828
:1012D00009D111E0E868B8B10120C8F80000FFF7B3
:1012E000FDFD064605E002E1FFF7F8FD801B022840
:1012F000C0D820688007F7D52068296920F0F80059
:1013000040EAC10020600DE0C8F80090FFF7E6FD5C
:10131000064604E0FFF7E2FD801B02281FD8206884
:101320008007F7D42878000722D5724E744869697F
:101330006C3671B101210160FFF7D0FD074604E072
:10134000FFF7CCFDC01B022809D830688007F7D50D
:101350000EE0C0F80090FFF7C1FD074605E083E00E
:10136000FFF7BCFDC01B02287ED830688007F7D489
:101370002878400768D5DFF87CA100270AF1380AF1
:10138000DAF80000C0000BD4DAF8001041F0805108
:10139000CAF80010DAF80000012700F08050009031
:1013A000584E3068C00510D4306840F4807030600A
:1013B000FFF794FD009005E0FFF790FD0099401ABB
:1013C000022851D83068C005F6D54A4EA86868365C
:1013D00001280FD00528306810D020F001003060BF
:1013E000306820F004003060A868B8B1FFF776FDDF
:1013F00000900FE0306840F00100F4E740F0040096
:101400003060F7E7FFF76AFD0099411A41F2883032
:10141000814264D830688007F4D50EE0FFF75EFDA6
:10142000009007E0FFF75AFD0099411A41F2883019
:10143000814254D830688007F4D42FB1DAF8001014
:1014400021F08051CAF80010A869C0B3DBF8001081
:10145000C1F3810102294AD00228484607D0C8F8C2
:101460006000FFF73BFD00E039E005463AE0474603
:10147000C8F86000FFF732FD064604E0FFF72EFDD6
:10148000801B02282BD820688001F7D4D5E90701FA
:101490000843A96A1C4A490802EB01416A6A41EA09
:1014A0008211084395F82C1040EA01611148001F91
:1014B000016001203866FFF711FD054605E014E0E4
:1014C000FFF70CFD401B022809D820688001F7D5E2
:1014D0000BE000BFFFF702FD401B022802D90320EA
:1014E000BDE8F88F20688001F4D40020F8E70120DF
:1014F000F6E700000838024000380240000047428A
:10150000800E4742007000400000FFFF10B5401EF3
:10151000B0F1807F01D3012010BD4FF0E024606165
:101520000F21601701F0F2FE0020A061072020616A
:10153000002010BD70B590F83C20012A19D001247C
:1015400000F83C4F0222427050F83C3C5A689D68BB
:1015500022F070060A684968324325F08005294365
:101560005A6050F83C2C916044700021017008468C
:1015700070BD022070BD10B5040003D094F83D008A
:1015800010B107E0012010BD002084F83C00204687
:1015900000F00CF8022084F83D00211D206801F0C5
:1015A000D5FA012084F83D00002010BD08B5006880
:1015B000B0F1804F0CD00B49884208D10A4801682D
:1015C00041F400310160006800F40030009008BD73
:1015D0000548001F016841F001010160006800F04A
:1015E0000100F3E7004401404438024070B504466E
:1015F00090F83C00012817D0012584F83C500220C7
:1016000084F83D002068826822F0770222F47F424D
:1016100082600868502830D00DDC20284DD005DCD1
:1016200098B310283BD148E0022070BD302844D048
:10163000402834D139E0602828D0702806D0B0F591
:10164000805F2CD0B0F5005F29D10AE0CB68D1E9EA
:101650000121206801F0DEFA2068816841F07701FD
:1016600009E0CB68D1E90121206801F0D3FA2068B4
:10167000816841F48041816011E0CA68496820684E
:1016800001F09CFB5021206807E016E0CA68496819
:10169000206801F0A4FB6021206801F0C5FA84F8FD
:1016A0003D50002084F83C0070BDCA68496820683D
:1016B00001F084FB40212068EFE7226801461046D4
:1016C000EBE7000010B586B0044614216846FEF72B
:1016D000AFFD2368174C002117480222A34210D106
:1016E000036843F080030360006800F08000059009
:1016F000D0020090CDE90121CDE9031269460F48DF
:1017000013E00F4CA34212D1036843F0200303609F
:10171000006800F02000059040200090CDE90121F4
:101720000320CDE9031069460648FFF7F9FA06B031
:1017300010BD0000000C004030380240001C024088
:10174000004401400014024070B5044690F83C008B
:101750000D4601280DD0012684F83C60022084F853
:101760003D0042B1042A18D0082A2AD00C2A4DD1B3
:1017700039E0022070BD206801F05EFA20688169BE
:1017800041F0080181612068816921F004018161D3
:10179000206881692A69114311E0206801F07CFA10
:1017A0002068816941F4006181612068816921F4C8
:1017B00080618161206881692A6941EA0221816131
:1017C00024E0206801F09EFA2068C16941F0080118
:1017D000C1612068C16921F00401C1612068C1694B
:1017E0002A69114311E0206801F0C0FA2068C1693C
:1017F00041F40061C1612068C16921F48061C16167
:101800002068C1692A6941EA0221C16184F83D600A
:10181000002084F83C0070BD10B5040003D094F89B
:101820003D0010B107E0012010BD002084F83C000D
:10183000204600F00DF8022084F83D00211D2068AC
:1018400001F084F9012084F83D00002010BD000063
:1018500008B500680649884208D10648016841F089
:1018600008010160006800F00800009008BD000059
:10187000000C0040403802407047000070B502681C
:1018800004461068D168536910F00F0F50D003F070
:10189000010501F4907635435DD0C20705D0CA0535
:1018A00003D5E26B42F00102E263420705D5DA0795
:1018B00003D0E26B42F00202E263820705D5DA0749
:1018C00003D0E26B42F00402E263020705D5DA07B7
:1018D00003D0E26B42F00802E263E26B002A33D0ED
:1018E000800604D5880602D5204601F0A0FA2068BB
:1018F0004069E16BC0F38010090700D428B320468B
:1019000001F087FA2068416949061AD5416921F03A
:1019100040014161606BA0B11B490165606BFFF73D
:10192000B3F8002810D0606B016DBDE87040084727
:10193000830610D58B060ED52046BDE8704001F019
:1019400076BA2046FFF798FF70BD2046FFF794FF58
:101950000020E06370BD030606D50B0604D52046C3
:10196000BDE8704001F004BC4006F3D54806F1D54F
:10197000D168204621F04001D160202184F839103F
:1019800000F091F870BD0000032E000870B504004F
:1019900004D094F83900002510B106E0012070BD94
:1019A00084F83850204600F023F8242084F83900C9
:1019B0002068C16821F40051C160204601F082FA1C
:1019C0002068016921F4904101612068416921F09A
:1019D0002A0141612068C16841F40051C160E5639A
:1019E000202084F8390084F83A00002070BD0000FF
:1019F00070B586B0064614216846FEF719FC2449E6
:101A00003068884241D123480025016841F4003103
:101A10000160006800F4003005901E48103801682D
:101A200041F0010101600068694600F00100059085
:101A30000C200090022001900120029003200390CE
:101A4000072004901448FFF76BF9154C13482060E9
:101A50004FF0006060604020C4E902050001C4E965
:101A60000405A561E561256220466562FFF7EEF891
:101A700008B1FEF754FD3463002211462620A66308
:101A8000FFF79AFA2620FFF789FA06B070BD00002A
:101A9000004400404038024000000240A060024084
:101AA0001C02002070477047FEE70000044908B59B
:101AB0000A6802430A6009680140009108BD0000FD
:101AC00030380240044908B50A6802430A600968D0
:101AD0000140009108BD000030380240044908B5BB
:101AE0000A6802430A6009680140009108BD0000CD
:101AF00030380240044908B50A6802430A600968A0
:101B00000140009108BD000040380240044908B57A
:101B10000A6802430A6009680140009108BD00009C
:101B200044380240F0B50A68032492FAA2F2B2FAED
:101B300082F30F257EE0324601269E40324078D067
:101B4000D1F804E0066892FAA2F7B7FA87F74FEAED
:101B5000470C04FA0CF7BE4392FAA2F7B7FA87F7DC
:101B60007F000EFA07FE46EA0E0606604E68012E5A
:101B700001D0022E15D1D1F808E0866892FAA2F7BA
:101B8000B7FA87F74FEA470C04FA0CF7BE4392FA0C
:101B9000A2F7B7FA87F77F000EFA07FE46EA0E06AD
:101BA0008660D1F810C0C66892FAA2F7B7FA87F734
:101BB0007F0004FA07FE92FAA2F7B7FA87F77F00D0
:101BC00026EA0E060CFA07FC46EA0C06C6604E68CA
:101BD000022E2ED192FAA2F6B6FA86F6082E4E6999
:101BE00013D2076A92FAA2FCBCFA8CFC4FEA8C0C66
:101BF00005FA0CFC92FAA2F2B2FA82F2920027EAFB
:101C00000C0796403743076213E0476A120A92FABC
:101C1000A2FCBCFA8CFC4FEA8C0C05FA0CFC92FA84
:101C2000A2F2B2FA82F2920027EA0C0796403743FA
:101C300047625B1C0A681646DA407FF47CAF4A684C
:101C4000012A01D0022A07D1CB684168324691436C
:101C500006FB03F2114341600020F0BD30B5214C7A
:101C60004568B1FBF4F425F03F05254345601E4D62
:101C7000AA4207D94FF4967504FB05F44FF47A7520
:101C8000B4FBF5F4056A04F1010425F03F0544EACC
:101C90000504046213D96BB102EBC20404EB021217
:101CA000B1FBF2F4240508D0B1FBF2F1194341F481
:101CB00000410FE002EB4202F2E70121F6E7520099
:101CC000B1FBF2F3C3F30B03042B01D2042101E0B7
:101CD000B1FBF2F1C2694CF6FF739A430A43C26149
:101CE00030BD000040420F00A08601007FB50446D1
:101CF00000680D4620F001002060684600F022F8E0
:101D0000D5E9012320460299FFF7A8FF6969E86831
:101D1000A26848F2FF339A4308430243A26028684E
:101D2000216821F01A0101432160206840F0010080
:101D300020602869216821F480610143216004B09A
:101D4000002070BD10B5044600F094FE206000F045
:101D500067FE606000F072FEA060606800F07CFECC
:101D6000E06010BD10B503680122C3F380132BBBE4
:101D7000D1E900231A43D1E9023423431A430B6902
:101D80001A434B691A438B691A43CB691A430B6A8E
:101D90001A4303684FF6BF74A3431A4302604268B4
:101DA0004B6922F0040242EA134242600A6AB2F529
:101DB000005F02D1898C89B201610022C16921F4DE
:101DC0000061C161104610BD7FB50446C0680D4674
:101DD0000126C0F34030C0BBE9686868AA690843BF
:101DE000296911430843E16849F20C6291430843B1
:101DF000E060A868216921F44051014321616869CC
:101E0000616921F44071014361616846FFF79AFFFF
:101E10000F48844208D00F4884420DD00E488442B7
:101E20000AD00E48844201D1039906E00C4884424E
:101E300002D00C48844208D1029931B12B6823B1F9
:101E400000262046AA6900F00FF804B0304670BDA5
:101E500000100140004400400048004000140140D0
:101E6000004C004000500040F0B56424322501EBE6
:101E7000C10606EB0111B2F5004F2AD09A00B1FB62
:101E8000F2F3B3FBF4F3B1FBF2F66FF018077B4308
:101E900006EB8303B1FBF2F605EB0313B3FBF4F39C
:101EA000B6FBF4F603F0F00303EB0613B1FBF2F616
:101EB000B1FBF2F1B1FBF4F1794306EB810105EBE3
:101EC0000111B1FBF4F101F00F01194489B28160F5
:101ED000F0BD5A00B1FBF2F6B6FBF4F6B1FBF2F737
:101EE000B1FBF2F36FF0180C06FB0CF607EB86065D
:101EF00005EBC606B3FBF4F3B6FBF4F61B0106F0E4
:101F0000F80603EB4603B1FBF2F6B1FBF2F1B1FBCD
:101F1000F4F101FB0CF106EB810105EBC101B1FB12
:101F2000F4F101F00701D0E77FB500243A480094AE
:101F30000194029437490394016001254FF48031E4
:101F40000561C0E90114057680F820403349C0E9F5
:101F50000A140826C661C46080F830404561FEF767
:101F600085FB08B1FEF7DBFACDE9004569462A4852
:101F70000294FEF7D5FA08B1FEF7D1FA0220CDE9B6
:101F8000005069462448FEF7CBFA08B1FEF7C7FABD
:101F90000320CDE9006069461F48FEF7C1FA08B189
:101FA000FEF7BDFA092000900420019069461A4806
:101FB000FEF7B6FA08B1FEF7B2FA0A200090052043
:101FC000019069461448FEF7ABFA08B1FEF7A7FA8C
:101FD0000B2000900620019069460F48FEF7A0FAFA
:101FE00008B1FEF79CFA0E20009007200190694688
:101FF0000948FEF795FA08B1FEF791FA0F20CDE9EE
:10200000000669460448FEF78BFA002801D0FEF767
:1020100086FA7FBD00200140280000200100000F4B
:102020007FB500241548009401940294124903944A
:1020300001604FF48031C0E901140461047680F836
:1020400020400F49C0E90A140125C561C46080F829
:1020500030404561FEF70AFB08B1FEF760FA052043
:10206000CDE90005694602940448FEF759FA0028B4
:1020700001D0FEF754FA7FBD00220140700000201D
:102080000100000F104810B50E49016002214160A7
:1020900000214FF00072C0E902124FF440220261A9
:1020A0004FF4A0024261017641768176C1760177D4
:1020B0004177FEF773FB002803D0BDE81040FEF720
:1020C0002EBA10BD00640040B8000020104810B5C2
:1020D0000E4901600221416000214FF00072C0E909
:1020E00002124FF4402202614FF4A00242610176D5
:1020F00041768176C17601774177FEF74FFB002864
:1021000003D0BDE81040FEF70ABA10BD00680040D9
:10211000E00000201CB500240C4900940A480194FA
:1021200008600846FEF76BFC08B1FEF7F8F900946A
:102130000022694605480194FEF740FC002801D0C2
:10214000FEF7EDF91CBD00000074004008010020FE
:10215000094808B5016841F40011016000680022D7
:1021600000F40010009011461120FEF725FFBDE895
:1021700008401120FEF712BF303802402DE9F04F21
:1021800087B014216846FEF753F8BB480024016865
:1021900041F010010160016801F010010591016832
:1021A00041F002010160016801F00201059101683E
:1021B00041F040010160016801F0400105910168B2
:1021C00041F008010160016801F008010591016812
:1021D00041F004010160016801F00401059101680A
:1021E00041F480710160016801F48071059101681A
:1021F00041F001010160016801F0010105910168F0
:1022000041F080010160016801F0800105910168E1
:1022100041F0200101600068002200F020000590DC
:102220004FF647019548FEF753FE4FF48A560022B9
:1022300031469348FEF74CFEDFF848B24FF484571E
:10224000002239465846FEF743FE49F680480022F0
:1022500041468D48FEF73CFE4FF4EE6900224946A8
:102260008A48FEF735FE002240F6BC418848FEF75A
:102270002FFE4FF4106A002251468648FEF728FED2
:10228000002248F668618448FEF722FE38200325C4
:10229000CDE90005694602947848FEF741FD4FF606
:1022A000470000900120CDE901046946734803947A
:1022B000FEF736FD4FF40550CDE90004694672483B
:1022C0000294FEF72DFD4CF28700CDE9000469462B
:1022D0006E480294FEF724FD01200096CDE901042A
:1022E000694667480394FEF71BFD01200097CDE97E
:1022F0000104694658460394FEF712FD4320CDE9D8
:102300000005694602945846FEF70AFD0120CDF803
:102310000080CDE9010469465B480394FEF700FDA7
:102320000120CDF80090CDE9010469465748039497
:10233000FEF7F6FCA802009001A9022081E8310016
:102340000C20049069464E48FEF7EAFC40F6AC408B
:1023500000900120CDE9010469464D480394FEF741
:10236000DFFC4020CDE90004694649480294FEF7AD
:10237000D7FC0120CDF800A0CDE90104694645480D
:102380000394FEF7CDFC102000900120CDE902045B
:10239000019069463E48FEF7C3FC43F60800CDE9CC
:1023A0000005694602943948FEF7BAFC48F66060B9
:1023B00000900120CDE90104694637480394FEF7F7
:1023C000AFFC4FF23F00CDE90005344E6946029460
:1023D0003046FEF7A5FC4FF48040CDE90004694685
:1023E0002D480294FEF79CFC0120CDE900056946CA
:1023F00002942748FEF794FC1420CDE90004012044
:10240000029069462448FEF78BFC7015CDE9000464
:1024100069461B480294FEF783FC082000900120C7
:10242000CDE90204019069461B48FEF779FC3F2084
:10243000CDE90005694602941348FEF771FC4FF49C
:102440007060CDE90004694630460294FEF768FCEE
:102450003020CDE90005694602940948FEF760FC8A
:102460004FF4F060CDE90004694604480294FEF799
:1024700057FC07B0BDE8F08F303802400010024032
:10248000000802400004024000180240000C024014
:102490000020024000000240001C024000140240E4
:1024A00010B58CB018216846FDF7C2FE182106A8A9
:1024B000FDF7BEFE0220FFF7F9FA4FF440700690D8
:1024C0000220079003200890012009900A90042020
:1024D0000B9006A91348FFF725FB4FF40010FFF7F8
:1024E00009FB114CE06820F00100E060206820F05A
:1024F00040002060206820F08000206000200B4910
:102500000290CDE900010390201504900001059090
:1025100069462046FFF7EAFBE06820F0FE00E06035
:102520000CB010BD0004024000540040801A0600A8
:1025300010B58CB018216846FDF77AFE182106A860
:10254000FDF776FE0220FFF7B1FA4FF440600690E7
:102550000220079003200890012009900A9004208F
:102560000B9006A91348FFF7DDFA4FF48000FFF740
:10257000C1FA114CE06820F00100E060206820F012
:1025800040002060206820F08000206000200B497F
:102590000290CDE900010390201504900001059000
:1025A00069462046FFF7A2FBE06820F0FE00E060ED
:1025B0000CB010BD0004024000580040801A060014
:1025C00010B58CB018216846FDF732FE182106A818
:1025D000FDF72EFE8020FFF769FA4FF4C0700690D9
:1025E0000220079003200890012009900A900420FF
:1025F0000B9006A91348FFF795FA4FF40000FFF778
:1026000079FA114CE06820F00100E060206820F0C9
:1026100040002060206820F08000206000200B49EE
:102620000290CDE90001039020150490000105906F
:1026300069462046FFF75AFBE06820F0FE00E060A4
:102640000CB010BD001C0240005C0040801A060067
:1026500010B592B028216846FDF7EAFD18210AA8B6
:10266000FDF7E6FD1A48016841F4805101600068F9
:1026700000F4805010900120FFF724FAE0200A9027
:1026800002200B9003200024CDE90C040520CDE9A5
:102690000E400AA90F48FFF745FA4FF48270CDE9C2
:1026A00000404FF40070CDE9044002940820CDE9C9
:1026B000060403940A20CDE90840074C69462046E9
:1026C000FFF750FB606820F01000606012B010BD92
:1026D000443802400000024000300140F0B591B0A3
:1026E000282106A8FDF7A4FD18216846FDF7A0FDE6
:1026F0002048016841F480410160006800F4804096
:1027000010904FF48070FFF7DDF90420FFF7DAF93D
:1027100000240225009503260527CDE90264CDE9B2
:102720000447019569461448FFF7FCF90C20CDE9F0
:102730000005CDE90264CDE9044769460F48FFF77B
:10274000F1F94FF48270CDE906402802CDE90A4044
:1027500009940A20CDE90E4008940C940D94084C7D
:1027600006A92046FFF7FEFA606820F010006060BE
:1027700011B0F0BD40380240002002400008024085
:102780000038004010B588B01C216846FDF750FDA8
:10279000134812490024C0E900148460C460046135
:1027A0008461FEF7E8FE08B1FDF7B9FE0C48FFF7BB
:1027B00033F808B1FDF7B3FE6020CDE900040294C0
:1027C0000022694606480494FEF7BEFF08B1FDF7F3
:1027D000A6FE0348FEF776FF08B010BD0044014096
:1027E0009C01002010B586B0002416480094019486
:1027F0000294039404944FF08041059401604F21AA
:10280000C0E90114611EC0E903148461FEF7B3FE40
:1028100008B1FDF784FE4FF48050009069460948E6
:10282000FEF7E4FE08B1FDF77AFE049404A905481A
:102830000594FEF77FFE002801D0FDF770FE06B07C
:1028400010BD00001C01002010B58AB000240794C0
:102850001C2168460894FDF7EBFC15481349C0E9B4
:1028600000148460C46004618461FEF7D5FF08B180
:10287000FDF755FE079407A90D480894FEF75AFE88
:1028800008B1FDF74CFE6020CDE900040294082257
:10289000694607480494FEF757FF08B1FDF73FFE6D
:1028A0000348FEF70FFF0AB010BD0000000C004007
:1028B0005C01002010B58EB01C216846FDF7B8FC05
:1028C000182107A8FDF7B4FC1020FFF71FF901201D
:1028D000FFF704F94FF4C06007900220089003202E
:1028E0000024CDE9090401200B9007200C9007A9D2
:1028F0000F48FFF717F94FF4E130CDE900040C2041
:102900000294CDE90340059406940A4C694620469A
:10291000FFF75AFA206920F490402061606920F0A6
:102920002A006061E06840F40050E0600EB010BD25
:1029300000000240001001400C4810B50A49016037
:102940004FF4E1314160002181600C22C160C0E997
:1029500004128161C161FFF719F8002803D0BDE8B6
:102960001040FDF7DCBD10BD00440040DC0100203C
:102970002DE9F0418EB01C2106A8FDF759FC182165
:102980006846FDF755FC2020FFF7C0F84020FFF710
:10299000A5F80420FFF7A2F84FF480400225032693
:1029A0008DE8610003AA002401274FF0080882E89F
:1029B000900169461548FFF7B5F880208DE8610061
:1029C00003AA694682E890011148FFF7ABF84FF47B
:1029D000E130CDE906040C200894CDE909400B94C0
:1029E0000C940C4C06A92046FFF7EEF9206920F460
:1029F00090402061606920F02A006061E06840F446
:102A00000050E0600EB0BDE8F08100000018024008
:102A10000008024000140140FEE7704770470000C4
:102A200004490968044A01F0F0010909515CC840F1
:102A30007047000008380240A434000804490968BF
:102A4000044A01F4E05102EB91210978C840704733
:102A500008380240B434000804490968044A01F403
:102A6000604102EB51310978C84070470838024094
:102A7000B43400080748006810F00C01064807D07D
:102A8000042904D0082903D1082000F009B803481C
:102A900070470000083802400024F40040787D01AF
:102AA00010B5104A04460020116811F480030E4945
:102AB00003D0B3F5800F00D10C49082C11D1106858
:102AC00000F03F00B1FBF0F01168C1F388114843FA
:102AD0001168012201F4403102EB11414900B0FBC1
:102AE000F1F010BD043802400024F40040787D016C
:102AF0007047FEF7F9B900001048016841F4700111
:102B000001600F48016841F0010101600C4A002199
:102B10000832116002680B4B1A400260031D0A4A1A
:102B20001A60026822F48022026005480C300160BD
:102B300002495806803908607047000088ED00E0BF
:102B400000380240FFFFF6FE10300024F0B50268A6
:102B5000254C264D264E274F274B4FF0804CA04248
:102B600009D0604507D0A84205D0B04203D0B84292
:102B700001D0984204D122F0700E4A6842EA0E0257
:102B8000A0421BD0604519D0A84217D0B04215D042
:102B9000B84213D0984211D0184DA8420ED0184D0B
:102BA000A8420BD0174DA84208D0174DA84205D017
:102BB000164DA84202D0164DA84203D122F440750A
:102BC000CA682A434D6922F080022A4302608A685B
:102BD000C2620A688262A04201D0984201D10969AA
:102BE000016301214161F0BD00000140000400408B
:102BF00000080040000C004000040140004001407B
:102C0000004401400048014000180040001C004002
:102C10000020004010B5846842EA032224F47F4477
:102C20000A432243826010BD826822F070020A4388
:102C300042F0070181607047F0B5026A22F001029C
:102C40000262036A42688469124E24F073050C68BC
:102C50002C4323F002058B682B430D4DA84201D075
:102C6000B04205D123F00807CB683B4323F00403AF
:102C7000A84201D0B04205D14D6922F440721543FB
:102C80008A692A4342608461496841630362F0BDF6
:102C90000000014000040140F0B5026A22F0100279
:102CA0000262026A436884690D6824F4E64444EAD7
:102CB00005248D6822F0200242EA05120F4D104EC5
:102CC000A84201D0B04206D1CF6822F0800242EA89
:102CD000071222F04002A84201D0B04207D14D694C
:102CE00023F4406343EA85038D6943EA8503436027
:102CF0008461496881630262F0BD00000000014008
:102D000000040140F0B5026A22F480720262026A95
:102D10004368C46922F4007224F073050C68124EF3
:102D20002C438D6842EA05220E4DA84201D0B042E4
:102D300006D1CF6822F4006242EA072222F48062C0
:102D4000A84201D0B04207D14D6923F4405343EA71
:102D500005138D6943EA05134360C4614968C16383
:102D60000262F0BD000001400004014030B5026A7B
:102D700022F480520262046A4268C3690D6823F437
:102D8000E64343EA05238D6824F4005444EA0534FD
:102D9000084DA84202D0084DA84204D14D6922F442
:102DA000804242EA85124260C3614968016404625C
:102DB00030BD0000000001400004014010B5036A6E
:102DC000046A24F001040462846924F0F00444EAF3
:102DD000021423F00A020A438461026210BD10B596
:102DE000036A23F0100303628369046A23F47043C7
:102DF00043EA023224F0A00343EA01118261016236
:102E000010BD10B5806B0021C185C184FEF734FD73
:102E100010BD0168CA6822F49072CA6001684A69EC
:102E200022F001024A61202180F83A10704710B563
:102E300090F83A10222901D0022010BD8168B1F526
:102E4000805F11D00169002901681FD0496801F035
:102E50007F03816A4A1C82620B70C18D491E09047E
:102E6000090CC18518D02BE00269816A002A02682A
:102E7000526805D0D2B20A80816A491C8162ECE7AF
:102E8000C2F308020A80816A891CF7E74A68816AEE
:102E90004B1C83620A70E0E70168CA6822F02002D6
:102EA000CA600168CA6822F48072CA6001684A690F
:102EB00022F001024A61202180F83A10FEF7F2FD6B
:102EC000002010BD2DE9F041044600680169E26868
:102ED00021F44051114301612169A068E26908436E
:102EE0006169114322680843D16849F20C63994330
:102EF0000143D16020684169A26921F44071114306
:102F00004161E2696425B2F5004F9748974922680C
:102F10004FF032083FD08A4201D082427CD1FEF786
:102F200025F900EBC00101EB001061688900B0FBDE
:102F3000F1F6FEF71BF900EBC00101EB0010616830
:102F40008900B0FBF1F0B0FBF5F06FF018014843D9
:102F500006EB800108EB0110B0FBF5F000F0F00685
:102F6000FEF704F900EBC00101EB00106168890075
:102F7000B0FBF1F0B0FBF5F006EB0016FEF7F6F84B
:102F800000EBC00101EB001061688900B0FBF1F7B4
:102F9000FEF7ECF8D2E08A4201D082423DD1FEF742
:102FA000E5F800EBC00101EB001061684900B0FBDF
:102FB000F1F0B0FBF5F00601FEF7D8F800EBC00128
:102FC00001EB001061684900B0FBF1F7FEF7CEF8A5
:102FD00000EBC00101EB001061684900B0FBF1F0AB
:102FE000B0FBF5F06FF01801484307EB800108EBE8
:102FF000C100B0FBF5F000F0F80006EB4006FEF76C
:10300000B5F800EBC00101EB001061684900B0FBAE
:10301000F1F7FEF7ABF83CE055E0FEF797F800EB70
:10302000C00101EB001061684900B0FBF1F0B0FB9A
:10303000F5F00601FEF78AF800EBC00101EB001085
:1030400061684900B0FBF1F7FEF780F800EBC001C2
:1030500001EB001061684900B0FBF1F0B0FBF5F046
:103060006FF01801484307EB800108EBC100B0FB8B
:10307000F5F000F0F80006EB4006FEF767F800EB0D
:10308000C00101EB001061684900B0FBF1F7FEF7E9
:103090005DF800EBC00101EB001061684900B0FB76
:1030A000F1F0B0FBF5F06FF01801484307EB800139
:1030B00008EBC100B0FBF5F000F0070021683044D8
:1030C0008860BDE8F081FEF741F800EBC00101EB3C
:1030D000001061688900B0FBF1F6FEF737F800EBED
:1030E000C00101EB001061688900B0FBF1F0B0FB9A
:1030F000F5F06FF01801484306EB800108EB011072
:10310000B0FBF5F000F0F006FEF720F800EBC00190
:1031100001EB001061688900B0FBF1F0B0FBF5F045
:1031200006EB0016FEF712F800EBC00101EB0010F1
:1031300061688900B0FBF1F7FEF708F800EBC00109
:1031400001EB001061688900B0FBF1F0B0FBF5F015
:103150006FF01801484307EB800108EB0110B0FB4A
:10316000F5F000F00F00A9E7001401400010014045
:1031700090F83910212901D0022070478168B1F5FB
:10318000805F016A0BD04A1C0262026809785160B4
:10319000C18C491E0904090CC1840ED017E00988AE
:1031A0000268C1F30801516001690029016A02D077
:1031B000491C0162ECE7891CFBE70168CA6822F040
:1031C0008002CA600068C16841F04001C16000200F
:1031D000704700000148FEF751BB0000DC010020F1
:1031E000FEE7FFF7C5BB000070B592B0302168461E
:1031F000FDF71EF814210CA8FDF71AF81948002550
:10320000016841F080510160006800F08050119029
:103210001548016841F4804101600068022400F40F
:103220008040119001200090000401908001CDE9C0
:1032300006400F260896C020CDE9090407200B9010
:103240006846FDF7D5FF4FF4A050CDE90E50E002DF
:10325000CDE90C64109005210CA8FDF7DFFE12B03B
:1032600070BD00004038024000700040417000789E
:1032700050B1012813D002280DD11048012901684E
:1032800018D041F4006110E00D480129416903D0D4
:1032900041F080014161704721F08001FAE709485F
:1032A0000129016803D041F080010160704721F0DD
:1032B0008001FAE721F40061F7E7000014180240EA
:1032C000002002401404024010B501700446427010
:1032D000FEF754FF204610BD4078704710B500F04F
:1032E00035F810BD10B5040007D1012405E0FCF746
:1032F000CBFF006800B904488047204600F098F8EA
:103300000028F4D010BD0000470200080907090E8C
:10331000002804DB00F1E02080F80014704700F082
:103320000F0000F1E02080F8141D704702E008C88B
:10333000121F08C1002AFAD170477047002001E02F
:1033400001C1121F002AFBD17047000010B50028F0
:1033500021D0114B0022001F196803E0814203D8DD
:103360000A4649680029F9D152B11368841A9C426F
:1033700004D1006818441060104602E0506000E07C
:10338000186039B102680B1A934203D10B681A44D2
:1033900002604968416010BD2000002008B5FDF7BB
:1033A000ABFDFFF721FFFEF7E9FEFEF7D1FEFEF7CA
:1033B00037FEFEF767FEFEF789FEFEF7ABFEFFF76E
:1033C0006FF8FFF7B5F8FFF7FBF8FFF741F9FFF7E4
:1033D00085F9FFF7CDFAFFF737FAFFF7D3F9FFF7D3
:1033E00069FAFFF7A9FAFEF79FFDFFF7FBF9002244
:1033F00011466846FFF768FF0220FFF773FF0122BE
:103400001146FFF761FF0446FFF7EBFE6846FFF742
:1034100063FF2046FFF760FF01216846FFF726FFA4
:1034200000212046FFF722FF2046FFF757FFFEE767
:10343000F0B50B30154D20F007010024144A0FE0C1
:1034400003688B420BD38B4205D95E1A4318476839
:10345000C3E9006700E04368136002C004E0021D96
:1034600010680028ECD12046002802D1286808B155
:103470000020F0BD064A07481060074A121A22F0E1
:103480000702C0E9002401202860D7E724000020BB
:103490002000002084020020800400200006101676
:1034A00000061016000000000000000001020304E6
:1034B000060708090000000001020304DC340008CC
:1034C00000000020280000002C330008043500080C
:1034D00028000020581600003C33000800000000BF
:1034E0000100000010000000000000000024F400B3
:1034F00000000000000000000000000000000000CC
:0435000000000000C7
:040000050800018965
:00000001FF
